:020000041000EA
:1000000000B5324B212058609868022188439860DF
:10001000D860186158612E4B002199600221596106
:100020000121F02299502B49196001219960352056
:1000300000F044F80222904214D00621196600F024
:1000400034F8196E01211966002018661A6600F04E
:100050002CF8196E196E196E052000F02FF8012189
:100060000842F9D1002199601B49196000215960AB
:100070001A491B48016001219960EB211966A021F2
:10008000196600F012F800219960164914480160C1
:100090000121996001BC002800D000471248134993
:1000A000086003C880F30888084703B5996A0420EC
:1000B0000142FBD001200142F8D103BD02B5186610
:1000C0001866FFF7F2FF186E186E02BD00000240BE
:1000D000000000180000070000035F00212200005C
:1000E000F4000018222000A00001001008ED00E03C
:1000F00000000000000000000000000074B24E7A12
:1001000000200420F7010010CB010010CD010010E9
:10011000C9010010C9010010C9010010C901001077
:10012000C9010010C9010010C9010010CF01001061
:10013000C9010010C9010010D1010010D301001045
:10014000C1010010C1010010C1010010C101001067
:10015000C1010010C1010010C1010010C101001057
:10016000C1010010C1010010C1010010C101001047
:10017000C1010010C1010010C1010010C101001037
:10018000C1010010C1010010C1010010C101001027
:10019000C1010010C1010010C1010010C101001017
:1001A000C1010010C1010010C1010010C101001007
:1001B000C1010010C1010010C1010010C1010010F7
:1001C000EFF30580103800BE00BE00BE00BE00BECA
:1001D00000BE00BEF2EB8871EC6A01100C6B0110DE
:1001E0003802001090A31AE700201E49086006C8D4
:1001F00081F3088810471C480068002801D00020BF
:10020000F3E70DA40ECC002902D000F012F8F9E7B4
:100210001649174A002000E001C19142FCD115495E
:100220008847154988471549884700BEFDE701C939
:1002300001C29A42FBD370470C6B0110C000002032
:1002400098180020E482011000000420000004201F
:10025000E4820110001004200010042000000000BF
:100260007047000008ED00E0000000D09818002062
:100270006C690120B9310010810300107931001040
:100280007047C0467047C0460300202911D0826DD8
:10029000002A0ED0806981420DD0012A09D0586B06
:1002A00081420FD0022A04D01A6D00208A420BD05E
:1002B00070470020FCE70022D000801A8000043044
:1002C0001818F5E70122F7E70222F5E7426F03006D
:1002D000002A0ED0C06D88420DD0012A09D0186EB8
:1002E00081420DD0022A04D05A6E00208A4209D0E1
:1002F00070470020FCE700221A329200D058F7E73E
:100300000122F9E70222F7E710B5024807F058FD8D
:1003100010BDC046505F012070B5856D04000E0011
:10032000002D2BD08369202B0CD0012D26D0636BA0
:10033000202B13D0022D21D0236D0025202B15D08A
:10034000280070BDC0690EF035FB0028EDD10023F8
:10035000DD00ED1AAD0004356519F1E73100A06B41
:100360000EF028FB0028E5D10123F1E73100606D94
:100370000EF020FB02230028E2D1E9E70025DFE7A9
:10038000F0B5DE4657464E464546E0B599B003F017
:10039000B5F8D64AD64F537811781B020B439178A3
:1003A00009041943D3781B060B439B181A683B605A
:1003B0009A1A118804292ED99288002A2BD09B588A
:1003C000032B28D1CB4A023B1068CB4D01001940CA
:1003D000184200D131E111AC200006F0F3FAAB6D08
:1003E0009C46002B18D0AA69092A00D11DE1012BD7
:1003F00012D06A6B092A00D117E1022B0CD02B6DA9
:10040000092B00D111E10921BC4808F0D9FB0321D7
:10041000BB4808F0D5FBFEE763461C225A439046D2
:10042000A84443461E1D310020004CC84CC14CC896
:100430004CC1006843460860092199616346013355
:10044000AB656B6F20001A0016329200AA1851603B
:100450001A00AC491A3292000133A9506B6705F0BB
:1004600097FC0021A8462B000E00AA6D06E01C3365
:10047000191F0968132900D1E8E001369642F6D128
:10048000B146032E00D192E21C2373439C46AC4438
:100490006346181D0200210049C949C249C949C221
:1004A000096863461160132199616B6F4E461A000B
:1004B00016329200AA1851601A0093491A3292001B
:1004C000013301362000AE65A9506B6706F0BAFB18
:1004D00000229146AB6D42464E4606E01C32111F8B
:1004E00009680E2900D159E201369E42F6D1B14683
:1004F000032E00D149E21C2373439C46AC4463465F
:10050000181D0200210049C949C249C949C20968E8
:10051000634611600E2199616B6F4E461A001632C8
:100520009200AA1851601A0078491A329200A95014
:1005300001229046414601336B67754B013699465F
:100540001B68AE651A40734E0B4200D10AE2724F2F
:1005500030000B973E6007F0B5FD051E00D05AE74E
:100560000100386807F0CCFB6C4B29001860386834
:100570009A4607F0F5FB6A4B18600D9353461B68CB
:10058000002B00D147E7002800D144E71B7F012B57
:1005900000D1E2E1092B00D03DE7037F092B00D019
:1005A00039E74369002B00D135E71B68002B00DCDD
:1005B00031E75C4B0FAD09935B4B16AE0A9312AB60
:1005C00099465A4B0C935A4B08935A4B07932F005A
:1005D000594802F097FF831CF9D038700137BC42AC
:1005E000F6D1564B0F9A9A426BD10AAB597E9B7E3D
:1005F0002A791B020B439846012A00D1AAE0022A5D
:100600002DD0270014220021200002F00FFD079AB0
:1006100013682360137923713878013702F0F6FEEE
:10062000BE42F9D102F056FFD1E7454808F0C8FABA
:100630000921444808F0C4FAEDE64348A96528605A
:1006400042486967136010F061FBC4E689463C4884
:1006500008F0B6FA49463B4808F0B2FADBE600215A
:1006600020000E3202F0E2FC394B236053461B6837
:10067000002B00D1AEE05969002900D1AAE00F6833
:10068000002F00DC47E101230022043101C90132BF
:1006900043439742FAD163719BB21B0AA371089B33
:1006A00027001B681393402363733F3BA373387881
:1006B00002F0ACFE013715ABBB42F8D102F00AFFE5
:1006C00085E7270014220021200002F0AFFC099AE0
:1006D00013682360137923713878013702F096FE8E
:1006E000B742F9D102F0F6FE71E7C046E0490110C9
:1006F000485F0120345F012014600120D0240110E4
:1007000004250110C15B0010F15C0010ED5C0010CD
:10071000305F0120505F0120385F0120445F0120DD
:100720004C5F01206C250110742501107C250110FF
:10073000D449011084250110404B4C00564C5031D7
:100740001825011048250110C0490110850200102C
:10075000564C493153461B68002B3DD0596900293E
:100760003AD00F68002F00DCD7E00023043101C924
:1007700001334243BB42FAD1424500D17FE000231E
:100780009B464346002B11D00EAF03E03870013773
:10079000AF4205D08A4802F0B5FE831CF6D116E7B9
:1007A0005B4601339BB29B464345EDD327001422A1
:1007B0000021200002F03AFC0A9A136823601379A2
:1007C00023713878013702F021FEB742F9D102F0E7
:1007D00081FEFCE600235EE700239B4643465B4523
:1007E000D2D1784FBB6A98460B9B186807F0FAFD88
:1007F0004346BF6AFF1A002800D09BE00D9B1B6890
:100800001A6993461A7F012A00D18CE059460020CC
:10081000DA689B68059308560692801A02F006FB78
:10082000059902F0B8FA804658464078069A40B2D8
:10083000801A02F0FBFA059902F0ADFA8346142201
:100840000021200002F0F2FB5F4B6049404623602C
:1008500002F0A1FA002102F087FA5D491390584690
:1008600002F099FA002102F07FFA15972700149000
:100870003878013702F0CAFDBE42F9D1D2E6002A2B
:10088000AFD0002398460692270003E03870013766
:10089000B94505D04A4802F035FE831CF6D196E6EC
:1008A0004C49119802F063FA53461F683B699B4616
:1008B0003B7F012B27D0B96802F059FA02F058FBB0
:1008C0000590F86802F0B2FA059902F04DFAC321DA
:1008D0000906071C02F08EFA002819D13E49381C7F
:1008E00002F09EFA7F23002803D1381C02F0C0FAE0
:1008F00043B25A464146535401239C46069BE0446A
:100900004345C1DC6DE743465A469B009850F3E7E8
:1009100080235B42EDE70123BDE643464246012BBF
:1009200000D02CE7ADE75B461B6898465B465B68EA
:100930009B4684E714220021200002F077FB0C9AEA
:1009400013682360137923711597270038780137CE
:1009500002F05CFDB742F9D164E6037F012B00D1C0
:100960001FE658E5039202920192A02252020092E1
:1009700030002A00194B396807F062F94B464246AD
:1009800017481A6010F0C2F9E1E50E21154808F089
:1009900017F93100144808F013F93CE5894613486B
:1009A00008F00EF94946124808F00AF933E5132118
:1009B0000C4808F005F931000B4808F001F92AE568
:1009C000404B4C0000400540564C523100808C4357
:1009D000008089436A71593F0000FE42A018002040
:1009E00009030010D024011004250110182501105E
:1009F000482501108023DB051868000F7047C046AA
:100A00000FB400B5084883B002F014FE049B002B1D
:100A100007D005A91800019102F03CFB034802F041
:100A200009FE012002F04EFB8C250110D832011086
:100A300070B5EFF3108C72B60D4D2B68002BFCD007
:100A4000BFF35F8F0724CB08C618C05C01230C409E
:100A5000A3401C000440034207D118433070BFF389
:100A60005F8F2C608CF3108870BD1000FFF7C8FFFB
:100A70002C0100D0F8B54746CE46884680B5EFF346
:100A8000108C72B6214D2C68002CFCD0BFF35F8F08
:100A90009A422CD8D4080727055D0619012417406F
:100AA000BC402C421FD007210127894609E0D40809
:100AB000055D06194C4639001440A1400C0029423E
:100AC00011D001329342F2D201204042BFF35F8F36
:100AD00000220E4B1A608CF3108800280FDBC0BC7C
:100AE000B946B046F8BD254310003570EEE7BFF3B8
:100AF0005F8F00232B608CF3108801204042434617
:100B0000002BECD00898FFF77BFFC0462C0100D0EB
:100B1000044A1078431CDBB2172B00D91023137042
:100B20007047C046F010002010B5064B064C82B04E
:100B30000100009318221F232000FFF79BFF02B043
:100B400010BDC0469C250110686401200021044BA3
:100B5000044ABFF35F8F02C39342FAD17047C04685
:100B6000000100D0800100D0054B064A1360064A00
:100B7000136053609360D360136153619361704756
:100B80008080808000E400E004E400E01F2318403F
:100B90001E3B8340002905D0C021044A4900535020
:100BA00013607047802201498B50FAE700E100E0B2
:100BB00001228240034B1B6813405A1E9341D8B256
:100BC0007047C04600E100E001238340014A136002
:100BD0007047C04600E200E0064B10309B68800082
:100BE000C358054A00209B1A47229A424041C0B28E
:100BF0007047C04600ED00E0F410002010B5EFF3A0
:100C0000108C72B60F4A1368002BFCD0BFF35F8FB5
:100C10000D4B10309B6880001B580C4A934201D04A
:100C200099420CD1084B9B681950BFF35F8FBFF3FB
:100C30005F8F0022034B1A608CF3108810BD00F008
:100C40009FFFC046240100D000ED00E0C10100106C
:100C5000F0B557464E46DE464546E0B58A4685B075
:100C60000600EFF3108972B663490B68002BFCD0C5
:100C7000BFF35F8F0021614B59568C46002900DA83
:100C8000B7E049000D005E4C6544AD006719029164
:100C9000B979103619705B4BB1009B6801915B58B4
:100CA000191B472935D8012118008843C679964277
:100CB00000D875E09B46029B019E9846039507E08D
:100CC0004D006D18AD006519EB7993424ED928009F
:100CD000062141560029F3DA45465B460196029506
:100CE000061D494D0396039E043FBF1B3F05474E1B
:100CF0007F0D374366468780867102986044800086
:100D00002418E27152464248A5802060A171A26079
:100D100018E040498B4200D06BE03F4B3B496353A6
:100D20003E4B0235043B65195B1B1B055B0D0B43FA
:100D30007B803B4BFA71BB80FF23BB715346BB608A
:100D400001233B432F4A019992685350BFF35F8FB1
:100D5000BFF35F8F0022284B1A6089F3108805B01B
:100D6000F0BCBB46B246A946A046F0BD0196464639
:100D7000029686885B467605B346061D039D03965C
:100D80005E463615B346061DB046C3445E4604357E
:100D90006519751BE0262D056D0D36023543A2E75A
:100DA000204BFA719C46030066461B1B5B415E4369
:100DB000360DB446AE1CB046A0444646164B6353AF
:100DC000164B0435043B9B1B1B05104E5B0D334338
:100DD0007B806319C31A043B1B055B0D3343BB8047
:100DE0006346BB715346BB60094B03603B000B433A
:100DF000A8E700F0C5FEC046240100D065690120C7
:100E0000F410002000ED00E001BD000000E0FFFF55
:100E100001488047C101001000A1FFFF3C110020E4
:100E200001BDFFFFAAAA000070B501240443EFF33F
:100E30000581EFF3108C72B6274A1368002BFCD0A3
:100E4000BFF35F8F254A0500254BAD1A6D416B43FB
:100E50001B0D244D8900AE685BB27658A64224D0A3
:100E600006215156994224D01221515699422AD036
:100E70001E215156994228D02A215156994226D0F6
:100E800036215156994224D0422151560524994287
:100E900010D0154A117813708171BFF35F8F002253
:100EA0000D4B1A608CF3108870BDAA680F4C54501B
:100EB000EFE700246100091989005218FF219171A0
:100EC0000B499180E5E70124F4E70224F2E70324CB
:100ED000F0E70424EEE7C046240100D0F41000201F
:100EE000AAAA000000ED00E065690120C101001020
:100EF00001BDFFFF10B5084B084C82B00100009304
:100F0000002205232000FFF7B5FD002801DB1F2389
:100F1000181A02B010BDC046B82501106969012039
:100F2000024B9C46614489000160704740000034D8
:100F300070B5114C114DAC420FD2FF262368002B27
:100F40000CD0FFF7E5FD01002000FFF7E9FFA680C8
:100F5000BFF35F8F0834AC42F0D370BDFFF7D8FD0C
:100F600001002000FFF7DCFF2671BFF35F8F08341C
:100F7000AC42E3D3F1E7C04688180020981800205F
:100F800010B50400FFF7C4FD01002000FFF7C8FF03
:100F9000FF232371BFF35F8F10BDC04610B504005F
:100FA0000120FFF7C1FD034BC3189B002360BFF373
:100FB0005F8F10BD40000034034B9C4661448900A4
:100FC0000160BFF35F8F7047400000340A4B19681F
:100FD000EFF3108072B60A68002AFCD0BFF35F8F6F
:100FE0001B68BFF35F8F00221A6080F3108840BF38
:100FF000002000217047C04644690120F0B5DE465C
:1010000057464E464546E0B583B0EFF305820323CD
:101010001340B54A990052580091904601229A40D7
:101020009346B24B1A60B24B01935B46B14843639F
:10103000434608229B5E9946002B3ADA43469B883A
:101040001BB2002B00DB9DE043469B79002B00D0B8
:10105000E1E0434608241C5F002C20DB43465A692C
:1010600063001B19DB00D3189D68DC686B1C00D182
:1010700003E1A048009984466144826A0B69AE1A74
:101080009B1A9E4213D35A46036A1A420FD09948BC
:1010900000F038FB8C4202DCC7D18542C5D940BF85
:1010A00003B0F0BCBB46B246A946A046F0BD0D61F8
:1010B000EDE7424652695B0092464B44DB009A449E
:1010C00053469E68DF6800F01DFB8F42B6DC00D1FE
:1010D000F8E0002F00DAD9E05246534654691B6904
:1010E000019A934200D1CCE0414652460820085E66
:1010F0005288000421001043984704000D0023008B
:101100002B4300D1C2E0002D00DBDFE030003900CE
:10111000001BA94153469860D96000229A5E002ABC
:1011200000DA8BE743465D6953009C18E4002C19F4
:10113000A768E4688C4200DD80E702D1874200D9CD
:101140007CE74646328108360DE08C4200D1C6E08D
:101150001E000023F25E002A0ADB53009C18E40004
:101160002C19A768E4689B18DB00EB188C42ECDDB7
:1011700053461A804B46338043469B881BB2002B54
:1011800000DA61E743461A69EFF3108172B613681B
:10119000002BFCD0BFF35F8F43469E88012342465D
:1011A0005B42938036B21369BFF35F8F00221A60EF
:1011B00081F31088002E00DA46E743465D69083364
:1011C00042469C467700BF19FF00EF19BB68604696
:1011D00098460823D15E9246FC68002907DA0EE0A3
:1011E000A24246D018000023C15E002906DB4B0056
:1011F0005B18DB00EB18DA68A242F1DD524606808C
:101200000023FE5E3980002EDCDA904643469B794F
:10121000002B00D11DE7002342469371434646460A
:101220000821595E08364B1C00D138E747468946ED
:10123000556902E006004B1C18D04B005B18DB0020
:10124000E8180A008C46E95E43881BB2002BF1DAED
:1012500001235B42DC178360C4604A4503D03180C0
:101260003B8903803A81E1464B1CE6D1B8464C46A7
:10127000F2E69A684245B5D9C0E7631C00D0F8E6AB
:1012800005E7200023699847002825D153464246A8
:101290001B8813811269EFF3108372B6116800295D
:1012A000FCD0BFF35F8F4246514652880A804246C7
:1012B000494651801269BFF35F8F0021116083F3AB
:1012C0001088BBE6864200D803E7B7E6094800F07D
:1012D00019FA001969411DE7656824680FE787421C
:1012E00000D835E744E7C046286901203C70054036
:1012F000FD0F00100040054070B52E4C2569002DF3
:1013000004D00A212C48FFF70BFE70BD2B4E0321A1
:10131000300000F0EDF9E660FFF7FAFB284B0322FE
:101320009C46D02322701B061B6801216370254B4D
:101330006044A3600F238000206102206380636902
:101340004942A18019800231198647311D835852C4
:1013500018315A5275325C3999521832013199520A
:101360001832013199521832013199520835183228
:101370009D52023118329952183201319952183265
:101380000131995218320131995218320131995272
:101390001832013199520C4B0C49DC600130356236
:1013A000FFF72CFC01210320FFF7F0FB084B1D6029
:1013B000A7E7C046601100204469012000400540B5
:1013C00040000034FFFF100028690120FD0F0010CD
:1013D000386005400048704760110020F8B51F00D4
:1013E00008AB1B7804001600002B08D100F092F91E
:1013F00032003B00121A8B41002B00DA53E02269C5
:10140000EFF3108072B61368002BFCD0BFF35F8F30
:101410000223E15E63694A005218D2009B1800293A
:1014200037DB1A8862802269BFF35F8F0025156061
:1014300080F31088069A9E60DF601A61079A5A61ED
:101440005A8801325204520C101C002A1FD082B25A
:101450005880080410432669EFF3108772B632688B
:10146000002AFCD0BFF35F8FA2881A80A180236975
:10147000BFF35F8F00221A6087F310880B4923782F
:101480008C4601329A40E36863441A60F8BD01203B
:10149000DDE72369BFF35F8F00221A6080F31088B5
:1014A00001204042F2E70020F0E7C0463C20000067
:1014B00070B501000469EFF3108C72B62068002843
:1014C000FCD0BFF35F8F02200D5E4C6968004019AD
:1014D000C0002418002D37DB208848800869BFF33E
:1014E0005F8F002606608CF31088E36063880498A1
:1014F000013320615B0405985B0CA26060611A1CDB
:10150000002B1FD093B22804628018430A69EFF3BE
:10151000108C72B61368002BFCD0BFF35F8F8B88E2
:1015200023808D800B69BFF35F8F00221A608CF3DC
:1015300010880B7801329A40CB6808498C46634486
:101540001A6070BD0122DDE70B69BFF35F8F0022D7
:101550001A608CF3108801204042F2E73C20000022
:1015600010B543890A1493421ADD53009B1842694F
:10157000DB00D3180469EFF3108C72B62268002ADE
:10158000FCD0BFF35F8F5A88090494B2090C8A42D9
:1015900008D00369BFF35F8F00221A608CF31088B4
:1015A000002010BD8022120214435C8001230269D6
:1015B0008371BFF35F8F002111608CF310880449A1
:1015C00002788C469340C268012062441360E8E7C9
:1015D0003C20000040787047F0B5D6464F4646465E
:1015E000C0B504000D0082B0EFF305830F00002B9F
:1015F00031D13B4B98461B68834227D0394B9946E3
:10160000DB689A464B4650461E7800F07BF80B008C
:10161000514602000436B60071582000891A8C46E3
:1016200029000026801A99418E4224DC21D020BF57
:101630002D4A536ABB422AD3926A0120A24213D395
:1016400002B0E0BCBA46B146A846F0BD43465B686E
:101650008B42D3D1EBE7244900204B6AAB42EFD356
:101660008A6A0130A242EBD25B1B5A1E9341D8B268
:10167000E6E78445DBD900F04DF822002B00121A72
:101680008B41002B05DA184A536ABB42D4D20020A2
:10169000D6E700230193154B2200009348462B0008
:1016A000FFF706FF011EEEDD43461C605D600E4B3A
:1016B0005A6ABA4211D39B6AA3420CD34846FFF739
:1016C0004FFF094A0020536ABB42B9D3926A0130E6
:1016D000A242B5D2C8E7BA42F0D120BFEEE7C04679
:1016E000581100206011002000400540CD0F00106F
:1016F00010B5024A0248FFF79BF910BDD42501102E
:101700006C6401200300416A0A00986A596A8A429F
:10171000FAD17047034B596A0A00986A596A914294
:10172000FAD170470040054070B504000D00174A1B
:10173000536A1900966A536A8B42FAD13000190035
:1017400024184D41AB4216D813D0104A2B00526AD0
:10175000954203D90D494A6A9A42FCD39A4207D16D
:101760000A4A02E0516A994202D1916AA142F9D330
:1017700070BDA642E9D9054B5B6A1C005A1CEFD02C
:10178000012301246442E5175B42E3E70040054082
:10179000F8B5DE464E4657464546E0B58B46050051
:1017A0000A991800160000F051FB0A9B6C001F02FA
:1017B000324B64199C46A4006444636881469F428E
:1017C00000D967602B1FDBB29846012B30D9C023AC
:1017D00080229B01E31812011A60294BAD00595970
:1017E0009A4600291BD17301E026226853401E400F
:1017F000802342465B01E3181E60012A30D9802312
:1018000080229B01E31812011A6053464A46676022
:101810005A51F0BCBB46B246A946A046F8BD58692D
:1018200000F014FB013043001B18033BFDD2DAE744
:101830005B46012BCBD1C02303229B01E3181A6026
:10184000023AA3681A42FCD07301E0262268AD0078
:1018500053401E4080230A4A5B019246E3181E60F3
:101860005A462168514003220A401A6001225B4611
:101870009A40A3681A42FCD0C1E7C04600800040ED
:1018800070640120F0B546464F46D646C0B51F00ED
:10189000344B44009C462418A40064446368884682
:1018A0001600FF2B02D880235B006360031FDBB2AE
:1018B0009A46012B30D9C02380229B01E3181201E4
:1018C0001A60294B85005959994600291BD173018B
:1018D000E026226853401E40802352465B01E318F5
:1018E0001E60012A30D9802380229B01E318120157
:1018F0001A6080235B0063604B465F51E0BCBA46D0
:10190000B146A846F0BD586900F0A0FA0130430086
:101910001B18033BFDD2DAE74346012BCBD1C02392
:1019200003229B01E3181A60023AA3681A42FCD012
:101930007301E0262268850053401E4080230A4A36
:101940005B019146E3181E60424621685140032224
:101950000A401A60012342469340A2681342FCD019
:10196000C1E7C0460080004070640120014B800048
:10197000C058704770640120F8B5040021481E006B
:1019800017000D0000F062FA0100380000F05EFA66
:10199000069B36041B031E432368002B20DB1A4BD7
:1019A0001A49E3185A1E93418022920194465B42E1
:1019B0001B0B174A1B0363441360164A13601F0076
:1019C0000A689743FBD1144B2560E2182123A060DD
:1019D00013602368002BFCDA0823E6601360F8BD6F
:1019E0003F2322681340AB42D9D1A3681B051B0DCE
:1019F0008342D4D1EE22E368D2021340B342CED167
:101A0000EDE7C046001BB7000040FDBF08C0004026
:101A100000E0004000F000400430000010B58024D9
:101A20001C4BE4051C6000281AD001231A4C1843F3
:101A30001A4BDC611A4C44401C6259629862802146
:101A4000144BC9051960174817490860E021C904FB
:101A50001960002A07D18022144B12061A6010BDAB
:101A60000E4BD861EBE753019B1A9B009A18802319
:101A700012015B049A4209D213000D490B60074B17
:101A80005A608022094BD2051A60E8E7094B1A0018
:101A9000F3E7C04600B00540D3C007B00080054062
:101AA0002D3FF84FFCFF01000820014000A0054039
:101AB00018690120FFFFFF008023024A9B000B43AF
:101AC000D362704700800540142310B501001888C8
:101AD00004331B88984710BD162310B501001888E1
:101AE00002331B88984710BDF8B54746CE4680B5EF
:101AF0000F1E19D014239946043304000025012633
:101B000098464B461888434621681B88984701C46D
:101B1000431E9841013540420640AF42F1D13000AA
:101B2000C0BCB946B046F8BD0126F8E7142370B52D
:101B30000400188804331B880D00054998470300EA
:101B40000020002C01DB0130A04029009847C0464E
:101B500055420000AA23064A1B0113608D235B0037
:101B6000D3600449044B19605368002BFCDA7047BA
:101B70000040024000B0FA00006002407047C046DA
:101B800010B50148FEF73CFFF825011070B5074D70
:101B9000074EB54209D20024013E761BB60808CD97
:101BA000984723000134B342F9D170BD802401105D
:101BB000C024011070B5074D074EB54209D200246C
:101BC000013E761BB60808CD984723000134B34286
:101BD000F9D170BDB4240110C0240110054B064A90
:101BE00006491A60064A074B1A6010000B689843B2
:101BF000FBD1704700E00040BFCDFBFE08C00040B5
:101C0000FE7F3C0000F00040044BDB6C002B03D156
:101C10008022034BD2021A607047C0460000115068
:101C20004C201150044A054B1A60054A1368DB0129
:101C30008033FBD17047C046FFFFFF0100F000403A
:101C400008C000404022034B9A675A671A67DA6659
:101C50007047C04600F0014010B5FEF777FF10BD99
:101C6000F8B52749274C284D641AA4082200302CC7
:101C700000D930222800920001F0DEF92F2C3BD849
:101C800030202F21A700EB195B07204A001BDB0F38
:101C9000091B052916D92600002B01D0EA51661C24
:101CA000C01AE3189B004108EB18C900C9181A6054
:101CB0005A6008338B42FAD1012303421CD0984367
:101CC0008419A700EA51631C2F2C15D09B00EA5001
:101CD000A31C2E2C10D09B00EA50E31C2D2C0BD003
:101CE0009B00EA50231D2C2C06D09B00EA50631D5C
:101CF0002B2C01D09B00EA50054B9D60F8BDC046DF
:101D000000010010C001001000000020C1010010FF
:101D100000ED00E0002310B5294C82B0A367FFF767
:101D200019FF0122274B1A60636C012BFCD103229F
:101D3000254B1A60224A936B012BFCD1013300938F
:101D40000121224A22480433FFF716FE0523012110
:101D50000093204A2048FFF70FFE002202210420B2
:101D60001E4BFFF78FFD0022012105201C4BFFF7C2
:101D700089FD0022002107201A4BFFF783FD002276
:101D800000210820174BFFF77DFD8023DB00009327
:101D9000002200210920134BFFF7FAFC0022104B10
:101DA00000210620FFF76EFD0420FFF7DFFD0E493E
:101DB00000F04CF801000020FFF77EFE02B010BDDD
:101DC000008000403CB0004030B00040002F685917
:101DD00000800240008C864700C00240001BB70014
:101DE00040597307006CDC0240420F000148042197
:101DF000014B184780110020E91A0010124A936F16
:101E00009B0815D29066D166002905D0FFE7FFE751
:101E1000FFE7516F106F704704B580210906C217A4
:101E20005140002800D0C84310F00AFB002104BD37
:101E3000F0B5146E556E576F166FFFF7E3FF14661B
:101E4000556657671667F0BD000000D0114A936FC2
:101E50009B0813D210665166002905D0FFE7FFE703
:101E6000FFE7516F106F704704B5002801D00020C4
:101E7000C04310F0E5FA002104BDC046F0B5146E71
:101E8000556E576F166FFFF7E5FF14665566576777
:101E90001667F0BD000000D094464A4A926F92083F
:101EA000624601D228E0C046F0B5464E346E756EEB
:101EB000776F366F00F020F89446424A14665566F4
:101EC000576716676246F0BD94463E4A926F920885
:101ED000624601D254E0C046F0B53A4E346E756E9B
:101EE000776F366F00F04CF89446364A14665566A4
:101EF000576716676246F0BD002B24DB11D000291E
:101F00003EDA00B5C943404200D1013100F038F853
:101F1000C943404200D10131DB43524200D1013379
:101F200000BD002AEBD1002801D1002905D00020F6
:101F3000C90FC90701D1C043410800B510F070FABC
:101F40000022002300BD00B500290ADBDB4352421A
:101F500000D1013300F014F8C943404200D10131EF
:101F600000BDC943404200D10131DB43524200D1A0
:101F7000013300F005F8DB43524200D1013300BDCC
:101F8000002923D1002B18D1002A0CD0BC460D4FBC
:101F900038667A6600210023FFE7FFE7FFE77A6FE4
:101FA000386F67467047002801D00748010000B528
:101FB00010F036FA0022002300BD02000B000020C2
:101FC00000217047000000D0FFFFFFFF002B00D072
:101FD000BFE0130C28D1002AE7D080B4114F396636
:101FE0007A66FFE7FFE730B4040C7B6F396F1B04A0
:101FF00023433B667A66FFE7FFE7FFE7C04684B20C
:102000007B6F3D6F1B0423433B667A66FFE7FFE768
:10201000C04600232C042D0C7A6F386F00196941DB
:10202000B0BC7047000000D0F0B594460025140EF7
:1020300001D112020835140F01D112010435940F99
:1020400001D192000235D40F01D152000135D40BD9
:102050000134254F7C66254C3C660E0C93B2FFE79D
:10206000FFE7FFE73C6F6643360C7703BE467343DA
:10207000DF0B5B04C01AB941130C7343DB18C91A98
:10208000CE086643360CB64493B273431F0F1B0150
:10209000C01AB941130C73431F0B1B05C01AB94179
:1020A000860D8F023E436643360C092D24DB520A0F
:1020B0007243801A7703460A6643360C16235B1B6D
:1020C000DE40DF40BF1964466643821B704604351C
:1020D00006330100D940A840C01900D30131A24203
:1020E00006D20023F0BD0000000000D0FFFFFFFF7C
:1020F000121B0130F3D3F1E709277F1BFE40644632
:10210000A2B27243801A00D20139220C7243130C1E
:102110001204821A99410B007046043513370100EE
:10212000F940A840801900D30131002B02D1A2420E
:102130000AD2F0BD013000D30131121BFAD2013BAB
:10214000F8D1A24200D2F0BD013000D30131121B00
:10215000F7E7F0B51C0C00D080E00CB400251C0A99
:1021600004D11B02160E3343120208351C0B04D196
:102170001B01160F3343120104359C0B04D19B0045
:10218000960F334392000235DC0B02D192185B416B
:1021900001351C00971864410134464F7C66464C5B
:1021A0003C660E0CFFE7FFE7FFE7C0463C6F664367
:1021B000360C7703BE4697B27743C01B00D2013975
:1021C000C01B00D201399FB27743C91BC91B170C32
:1021D00077437E04FF0B801BB941CE086643360C63
:1021E0000C2D33DBB644120B1F053A431B0B97B281
:1021F0007743C01B00D201399FB27743C91B170C2C
:1022000077433E043F0C801BB941860D8F023E434D
:10221000664329277F1BFE400C3D7746AF40BF1920
:1022200030BCA2B2ABB272437343801A9941220C04
:102230007243130C1204801A994102000B000137FB
:10224000001BA941F9D2781E0021F0BD0C277F1B8D
:10225000FE4077467F0BAF40FF19E0E700245D1C8E
:1022600007D0144F7D663966FFE7FFE7FFE7FFE71A
:102270003C6F95B29EB265436643401BB141150C5D
:102280001E0C6543664336042F0C3E432D04401B51
:10229000B141994204D202000B0020000021F0BDA0
:1022A00001D19042F7D3801A994101349942F2D377
:1022B000F6E70000000000D0FFFFFFFF484041406C
:1022C000484018B41B4B5B68FC46019308BD04DF13
:1022D0000327001018B4174B1B68FC46019308BD78
:1022E00000DF0D2700109446134A926F920809D21E
:1022F000624618B40F4BDB68FC46019308BD0CDF47
:10230000C52900100C4AF0B5146E556E576F166F44
:102310006246FFF7EEFF084A146655665767166770
:10232000F0BD18B4034B9B68FC46019308BD08DF61
:1023300069280010285A0120000000D0FFB5504045
:102340004240504059404B40594000E0FFB5154FC6
:102350004C00640D03D0BC4204D10C0314D80020FF
:10236000090D09055C00640D03D0BC4204D11C03B7
:102370000AD800221B0D1B0501264B4009D44B40F7
:1023800003D58B4200D18242FFBD9942FCD19042DD
:10239000FFBD0B43DB1803431343F5D0C943491872
:1023A000FFBD0000FF07000000B5FFF7CFFF01D021
:1023B000002000BD012000BD00B5FFF7C7FF804130
:1023C00000BDC04600B5FFF7C1FF01D9002000BD28
:1023D000012000BD00B5FFF7B1FF804100BD012025
:1023E00040054A00121804D85A00121801D80020DB
:1023F00070470120704700000021002805D1704778
:10240000C1174840401AFAD0C90713B5064B1B68DC
:1024100098470CBC441CA2401005120B0349091B31
:1024200009051943114310BD406901201F04000034
:1024300010B54C00620D8023D218DB00D21A5B0568
:102440007E2A10DD9E3A13DACC1709034908194396
:102450005242D140640001341532202A05DAD040BE
:102460000843604310BD002010BD0846604310BD06
:10247000C80FC018013810BD18B4044BDB6DFC4602
:10248000019308BD5CDF752C00100000285A012064
:10249000C94211D300B549004908002200F018F8DC
:1024A000002904D4002240428A41114600BD802107
:1024B0000906002000BD000018B4044BDB6EFC468A
:1024C000019308BD6CDF752B00100000285A012015
:1024D00018B4044B9B6FFC46019308BD78DF932B27
:1024E00000100000285A012018B4044BDB6FFC4692
:1024F000019308BD7CDF012C00100000285A012048
:10250000132370B51D78012D19D014DD1F48FFF776
:10251000E3FA06001E48FFF7DFFA1E4C8022310066
:10252000200000F089FD022D2DD01B48FFF7CCFACA
:102530001A4B186070BD1A4B164CA364F5E7184B84
:10254000144C23606360A360E36023616361A36153
:10255000E36123626362A362E36223636363A36351
:10256000E36323646364A364E36423656365A36531
:10257000E36523666366A366E36623676367A36711
:10258000E367A364D1E7064BA364CEE7534400009E
:1025900053460000285A01204C33000040690120B6
:1025A000D1260010244A4B0094465B0D6344F0B5DD
:1025B00004000D005A1C21DB5A1C35D0342B1CDAC8
:1025C0003326F61A3700203F1CD40121B9400B00F6
:1025D0000121B1400A0012196B41002F1EDB0224B9
:1025E000BC4021000224B4402000160000254442D3
:1025F0008D4126402B4030001900F0BDCB0F00204C
:10260000D907FAE720210120891BC8400121B140E8
:1026100003000A0012196B41002FE0DA2024022582
:10262000A41BE5402900DDE7CB0F044ADB071A4372
:1026300000201100E1E7C04601FCFFFF0000F03F71
:10264000F0B5C6460B000D0049000200040000B5BD
:10265000490D2FD01C48091826D43426711A8846F3
:10266000464610001900002E1BDD4746203F25D4AA
:102670000126BE40310001274646B7403800002BF6
:1026800006DA01246442E517A4185D4124184D417F
:10269000002342428B4126002C0016401C40300093
:1026A000210080BCB846F0BD00200021002BF8DAE4
:1026B0000649F6E7DB0F0020D907F2E72027BF1B0A
:1026C0000126FE403100D6E701FCFFFF0000F0BF0D
:1026D00007B5604601880A0A0230DF2AFAD1C9B27A
:1026E000820804D3028840880004104300E0006898
:1026F000014A5050039007BD285A01200FB403BC73
:102700000CBCF0B50124E407634000E0F0B50C0D0B
:10271000CF0F661E3605891B640503D3C9434042AB
:1027200000D30131640D03D0661CF60A07D0E41B08
:1027300000207F00791C89078912803C24031D0D2D
:10274000DF0F6E1E36059B1B6D0503D3DB43524224
:1027500000D301336D0D03D06E1CF60A07D0ED1BBC
:1027600000227F007B1C9B079B12803D2D032F1BAB
:10277000661B58D4A446202E46DA20371400BC40ED
:102780001D00BD40F24033412A4380185941CB0F10
:1027900005D0C943C04300226442504151416246C2
:1027A0004D0D28D10D0D07D100281FD0241940410F
:1027B0004941013A0D0DF9D0640006D3013000D330
:1027C0000131002C01D140084000013A0BD4941C87
:1027D000E40A04D112051144DB071944F0BDD907FE
:1027E000204B194300E0D9070020F0BD0029DDD1BE
:1027F000002CDBD1F0BD0132C6074008CD072843CD
:102800004908002EE1D0D9E73C2E29DA203E403796
:102810001400BC4000D00124F24014431A00BB4015
:102820001C43D317ACE7AC46202F08DA203604004F
:10283000B4400D00B540F84039412843A5E73C2F8E
:102840000CDA203F40360400B44000D00124F840A8
:1028500004430800B1400C43C117EAE71000190017
:10286000002494E70000F07FF0B50C0D661E3605DD
:10287000891BE60A6405640D02D0651CED0A04D0CC
:10288000002001210905803C2403A4461C0D671E7D
:102890003F05DB1BE70A6405640D02D0651CED0AE9
:1028A00004D0002201231B05803C240377406444AC
:1028B00097B484B296B27443070C7E43150C6F43F1
:1028C00080B26843361802D3012000043F18300458
:1028D000350C00197D41844688B29AB250430C0CE5
:1028E00062431F0C7C438EB27E43921902D30126B1
:1028F0003604A4191604170C3618674101BC81B2BE
:102900009AB25143040C62431B0C5C4380B258439F
:10291000121802D30120000424181004130C4018CC
:1029200063412D185E410020474106BC88B293B236
:1029300058430C0C6343120C544389B251435B1847
:1029400002D301210904641819041A0C0918624100
:102950006D1856410020474118BCF902720D114311
:10296000F0026A0D1043ED020A0D03D16D194041CA
:102970004941013B124E9B1B7600B3420ED26D00C3
:1029800007D30130002671416646354301D1400826
:1029900040001B05C918E4072144F0BD0BDA0133E0
:1029A00006D1013004D101314F0D01D04908F2E7C1
:1029B000E1070020F0BD013631050020EBE7000003
:1029C000FF030000F0B51C0D671E3F05DB1BE70A87
:1029D0006405640D02D0661CF60A04D000220123AF
:1029E0001B05803C2403D0252D060026F6432E66C9
:1029F0001E096E66CE0FF619B44649004F0D02D07F
:102A00007E1CF60A03D000200021403F3F033E1BFE
:102A1000B600B444013F7F05C91B49082E6F01363B
:102A200076089C02950D25437543ED137543AD1350
:102A300001356D10F603761B0CB4CC02450D2C430A
:102A4000A2B2B3B25A43270C7B43350C6F43A4B2F6
:102A50006C431B1902D3012424043F191C041D0CD0
:102A6000A4187D4124196D41009A91B2ACB2614322
:102A7000170C7C432B0C5F4392B25A43A41802D329
:102A800001221204BF182204230C52187B41019C1E
:102A90006C431B19520ED9010A434401A01A81B29A
:102AA000B2B2514303145A43360C734387B277438F
:102AB000D617D21900277E4136049B191704160C2D
:102AC0007F185E417316ED18F301002680337541BF
:102AD000A90F06D16400690AE8055B0A184309D208
:102AE0002FE00422944480337541A90AA8059B0A6B
:102AF000184326D3404149412404009A019B0D000C
:102B00005543641B4343E41A95B286B27543170CD0
:102B10007E43030C5F4392B25A43B61802D301229C
:102B20001204BF183204330C52197B4152429C41AB
:102B3000002C02D40022013051414008CA07104342
:102B4000490802B06246D7079210084BD218084BCA
:102B50009A4203D212058918C919F0BD0020002A33
:102B600001DC3900F0BD01331905F5E7FD03000074
:102B7000FE070000002200B500F00DF8CA179A42C7
:102B800000D100BDD8430121C907414000BD00006C
:102B900000220B150AD410B5944600F0A7F81414BF
:102BA000013400DA0021CB17144C2047002000210B
:102BB00070476244343A0CD40C2A07DA040091407E
:102BC000904052422032D440214310BDD843D943D3
:102BD00010BD203207D40C4694405242203211419D
:102BE000D040204310BD0800C917203203D4524200
:102BF0002032104110BD1800190010BDB32B001079
:102C00004A00520D144BD21A13DDFF2A1EDAD205E8
:102C1000CB0FDB071A43C300400F0903490A0843DF
:102C200010435B0001D301D0013070474308FBD251
:102C3000704702D0C80FC00770470A031213013251
:102C4000F8D1420F072AF5D1012200E0FF22C80F78
:102C500000028018C00570478003000000210A00B0
:102C6000002104E000210A00C11704E00022002333
:102C700006E0C0460022CB1758405940C01A99417F
:102C800030B5184CA21A002903D1010010D0002041
:102C9000203A4C1512D104D2013A001849414C0D8A
:102CA000FAD3114CA24204D212058918DB07C918C5
:102CB00030BDD243520D00200021F5E703D4013A84
:102CC00000184941FBD50B324405C00A4D05284385
:102CD000C90A640003D0002460416141E1E7E0D308
:102CE0004408F8E732040000FE0700000A0DCC0F8C
:102CF000531E1B05C91A520503D3C943404200D3D2
:102D00000131520D03D0531CDB0A07D0121B0020E7
:102D10006400611C89078912803A1203014BD21AA0
:102D200070470000FF03000051434343C9188C461D
:102D3000110C83B24B4310B4040C614392B280B2C5
:102D4000504362431C041B0C001910BC594113046E
:102D5000120CC01851416144704700004840414086
:102D600048400E4B5B6818470C4B1B6818470C4AD1
:102D7000936F9B0802D2094BDB681847F0B5146EBD
:102D8000556E576F166FFFF7F6FF054A14665566C6
:102D900057671667F0BD014B9B681847285B0120F9
:102DA000000000D007B548404140484001E0C0461F
:102DB00007B54200120E03D0FF2A03D1420218D8F1
:102DC000C00DC0054A00120E03D0FF2A03D14A02EB
:102DD0000FD8C90DC9050122414005D4414001D594
:102DE000814207BD884207BD0143491801D0C04355
:102DF000001807BD00B5FFF7DBFF804100BDC046EE
:102E000000B5FFF7D5FF01D9002000BD012000BDAE
:102E100000B5FFF7C7FF01D9002000BD012000BDAC
:102E200000B5FFF7BFFF804100BD0000C10FC9071B
:102E300000D54042002817D0F44603B40B4B1B6862
:102E4000984706BC81409E384042803107D20B062D
:102E500007D04900490AC0051043084360470130C4
:102E6000F8E7490A8902F5E7704700004069012048
:102E700041000A0E80231B067E2A0BDD9E3A0BDAE8
:102E8000C1174002400818435242D0404900013166
:102E90004843704700207047C00FC0180138704782
:102EA000C0420DD300B540004008002100F012F8E8
:102EB000002801D4404200BD8020000600BD000073
:102EC000034BDB69FC4618471CDFD52F00100000C0
:102ED000285B0120014B5B6A18470000285B01203A
:102EE000034BDB6FFC4618477CDFED2F0010000022
:102EF000285B0120014BDB6C18470000285B012098
:102F0000014B1B6D18470000285B0120132310B5EF
:102F100012481C78FEF7E0FD0100012C0AD003DD09
:102F200080220F4800F088F80E48FEF7CDFD0E4BCA
:102F3000186010BD0A4C5422200000F07DF80B4BA5
:102F40006365A365E36523666366A366E36623673B
:102F50006367A367E3672362E361E5E75346000025
:102F6000285B01204C33000040690120A92F00108C
:102F700043001B0E7F3B5A1C0DDB5A1C0ED0172B37
:102F800008DA1622D21A012393401818022393401C
:102F90005B4218407047C00FC007FBE7C00FC30774
:102FA000FE2080051843F5E707B5604601880A0A48
:102FB0000230DF2AFAD1C9B2820804D302884088DD
:102FC0000004104300E00068014A5050039007BD20
:102FD000285B01200021C2158032803201D0024AD4
:102FE0001047002070470000CD2A0000C30FDB0708
:102FF00041000A0E07D0FF2A08D00909054A89189E
:103000001943400770471900002070470249C9184A
:10301000FAE70000000000380000F07F01480421BA
:10302000014B184790110020E91A0010014B1B6852
:103030001847000090110020014B5B681847000002
:103040009011002010B5002800D110BD00F0A6FAA4
:10305000FBE7C0460FB430B50C4985B008AA08CAD2
:103060000D680392002D0CD000920122084C5242B0
:10307000200002A9A847012005B030BC08BC04B05C
:103080001847180000F0D6FA0020F5E7146901206F
:103090004530001010B5094A0300146884B0002CB4
:1030A00008D0012200910648524203A9A0470120FE
:1030B00004B010BD00F0BEFA0020F9E71469012049
:1030C0004530001000BEFDE77047C046094A0300C6
:1030D0001068002805D00849C3188B4207D8136030
:1030E000704706480449C31810608B42F7D9012085
:1030F0004042F5E710650120000004206C690120C2
:1031000000207047012040427047C046030010B5C0
:1031100008001100002B05D1044B1A685B6800F011
:1031200033F910BD01204042FBE7C046705C01103E
:103130000300013B10B508001400012B06D8012341
:103140000022210000F0A0F8200010BD0120404224
:10315000FBE7C046012040427047C0460120404284
:103160007047C046012040427047C046030002221B
:1031700000209A424041704710B5FFF7A3FFC046B8
:1031800030B50D0083B01900002A0BD0074B084C56
:103190000192009302002B002000FFF75BFF01204B
:1031A000FFF790FF034B1A00F1E7C0463C260110E1
:1031B0004C260110D832011070B5FEF7E7FC074D20
:1031C000074EB54209D20024013E761BB60808CD51
:1031D000984723000134B342F9D170BDC0240110D7
:1031E000C8240110030010B5080011001B6898479F
:1031F00010BDC046F0B5C64600B5437D07000D00C2
:103200001600002B38D0002A2EDD00216A1E9046C1
:103210006A5C037D4C1C00200A2A0CD0A64216D002
:1032200043461B5D21000D3B5A4253416A5CDBB2B1
:103230004C1C0A2AF2D1002BF0D1884217DB022164
:1032400010483B689847A64207D02000E8E786422E
:1032500003DD311A3B6828189847AD19013D2B78DA
:103260000D3B5A4253413B7580BCB846F0BD091A2C
:103270003B6828189847E2E7036811002800984740
:10328000F2E7C046CC5C0110F0B5DE4657464E462C
:103290004546E0B585B017001C0006000D00FEF79E
:1032A00039FA0023314A12184B41802109068B421A
:1032B00002D301222E4B52422E4908008A460FF0BB
:1032C000A7F801906B1C03D130000DF027FD05001D
:1032D000002C26D0284B9846284B1C68002C15D073
:1032E000002F21D1264F02E02469002C0ED0236844
:1032F000002BF9D03B68002B01D09C42F4D1200078
:103300002A003100C0472469002CF0D1019B002B1A
:1033100028D1280005B0F0BCBB46B246A946A0465D
:10332000F0BD184B9846D7E7154B994602ABDF1D09
:103330000A239B4602E02469002CE7D02368002B77
:10334000F9D04B461B68002B01D0A342F3D12A00D1
:1033500031002000C0475B460122390020003B704D
:10336000C047E8E750460FF073F8D2E740420F003D
:10337000FFFFFF7F90180020F5310010C46401208A
:10338000CC640120E5310010F8B557464E4645465D
:10339000DE4698461A4BE0B59B461A4B07000E00D6
:1033A00091469A46184D5B461C68002C03D115E0E7
:1033B0002469002C12D02B68002B01D0A342F7D136
:1033C000A368002BF4D03100380098470028EFDDC7
:1033D000F0BCBB46B246A946A046F8BD53465B6A60
:1033E000984508D85246926A4A4502D30220404284
:1033F000EEE79845FAD101200021FEF795F9D2E7D2
:10340000C464012000400540CC640120F0B5CE46E4
:10341000474680B583B06B460600DD1D2870FEF779
:1034200079F900231A4A12184B41802109068B4270
:1034300002D30122174B52421749080088460EF06A
:10344000E7FF164B81461C68002C14D0144F02E095
:103450002469002C0FD02368002BF9D03B68002B87
:1034600001D09C42F4D1200001222900FFF7BAFECE
:103470002469002CEFD14B46002B05D1300003B05E
:10348000C0BCB946B046F0BD40460EF0E1FFF5E7DE
:1034900040420F00FFFFFF7F90180020C46401200E
:1034A000CC6401200A4A1368002B05D10CE01A00F5
:1034B0001B691032002B07D09842F8D1002902D1A5
:1034C00003691360016170470029FCD01060FAE7BE
:1034D000C4640120084B10B51C68002C06D063683A
:1034E000002B04D098472469002CF8D110BD246922
:1034F000002CF4D1FAE7C046C464012010B500F0F6
:1035000053FA10BDF0B5CE464746040080B583B0EF
:10351000FEF700F926000027802336184F411B06CE
:103520009F4202D30126194F7642194BB94698465D
:10353000184D43461C68002C03D116E02469002C6A
:1035400013D02B68002B01D09C42F7D1A368002B2D
:10355000F4D0012101A898470028EFDD6B461879C7
:1035600003B0C0BCB946B046F0BD0B4B5A6A91459A
:1035700007D89B6AB34202D302204042F0E791454C
:10358000FAD101200021FEF7CFF8D2E7FFFFFF7F3D
:10359000C4640120CC64012000400540F0B5CE4653
:1035A000474680B583B06B460600DD1D2870FEF7E8
:1035B000B1F800231A4A12184B41802109068B42A8
:1035C00002D30122174B52421749080088460EF0D9
:1035D0001FFF164B81461C68002C14D0144F02E0CC
:1035E0002469002C0FD02368002BF9D03B68002BF6
:1035F00001D09C42F4D1200001222900FFF7FAFDFE
:103600002469002CEFD14B46002B05D1300003B0CC
:10361000C0BCB946B046F0BD40460EF019FFF5E714
:1036200040420F00FFFFFF7F90180020C46401207C
:10363000CC64012070B504000DF070FB0123010083
:10364000050001222000FFF71FFE084B1C68002C1C
:1036500006D06368002B05D098472469002CF8D168
:10366000280070BD2469002CF3D1F9E7C46401205F
:10367000024B1860024B19607047C046606401201D
:103680006464012010B5024B1878FDF79DFA10BD57
:1036900067690120154B70B51A68002A22D0EFF334
:1036A000108172B610680028FCD0BFF35F8F002035
:1036B0000F4A596010701B68BFF35F8F186081F369
:1036C0001088002400250B4E3078FDF771FA002891
:1036D00004D1002400252900200070BD3078FDF7BA
:1036E00073FAF8E7FA240025A400ECE7206901202A
:1036F000686901206769012070B5040000200E0090
:1037000001F078FB002836D0002001F089FB00286A
:1037100031D0FDF7FFFF0023184A12184B418021DA
:1037200009068B4216D2164D28000EF071FE0028B5
:1037300021D0002001F05EFB00280FD101200021E4
:10374000404200F07FFD0324644228000EF080FE1A
:10375000200070BD01220B4B5242E4E7002001F033
:103760005FFB0028EAD021003200002001F062FB5C
:10377000041EEAD1E7E703246442E9E740420F0070
:1037800048690120FFFFFF7F10B5FDF7C3FF00234D
:103790000E4A12184B41802109068B4202D30122A6
:1037A0000B4B52420B4C20000EF032FE00280CD086
:1037B00001200021404200F045FD002001F084FB83
:1037C0000028F5D120000EF043FE10BD40420F004E
:1037D000FFFFFF7F48690120F8B5DE46574680B5F8
:1037E00005000C00FDF796FF0023374A12184B41E5
:1037F000802109068B4202D30122344B52423449C4
:1038000008008A460EF004FE002803D1C0BCBB4667
:10381000B246F8BD002001F0EDFA00284AD000269B
:10382000002C43DD2B4B9B4614E0A919002001F02E
:1038300085FB070001200021404200F003FD00202D
:1038400001F042FBFDF766FF224BF6191860596044
:10385000B4422BDD002001F091FBA71B0200B8420F
:1038600000DD3A00002AE0D101200021404200F0B2
:10387000E9FC002001F028FB002001F0BBFA002841
:1038800014D0002001F07AFB0028E1D1FDF742FFBF
:103890005B460F001A685B68002184460E481218C8
:1038A0004B419F4202D8D3D19445D1D950460EF016
:1038B000CFFDABE700200021064B18605960504651
:1038C0000EF0C6FDA2E7C04640420F00FFFFFF7F9B
:1038D00048690120205A012020A1070030B52B4C57
:1038E00085B0002120000EF083FD00281CD1284B5C
:1038F0001A68002A16D0EFF3108172B610680028FB
:10390000FCD0BFF35F8F01242248596002781B6806
:10391000D2B20470BFF35F8F0020186081F310886B
:10392000002A17D005B030BD01200021404200F030
:1039300089FC002001F074FA050020000EF088FDDB
:10394000002DEFD0144B1B68002BEBD0134A1068EE
:103950009847E7E7FDF73EFD0400FDF7DBFEFA229E
:103960000023920012184B41802109068B4202D39A
:1039700001220B4B52420121029100210191094980
:1039800020000091FDF72AFDCCE7C04648690120E0
:1039900020690120686901206064012064640120BD
:1039A000FFFFFF7F95360010D02310B51B0684B0B3
:1039B0001C68FDF70FFDFDF70DFEA04202D00020B0
:1039C00004B010BD2A4B002100201B7801F0A0FCA0
:1039D00028480368002B47D00120FDF78BFAFF230E
:1039E000254C264920701840FDF708F92078012160
:1039F000FDF7CCF80520FDF7EFF8002826D10822C6
:103A000000211F48FFF712FBFDF7E4FC0400FDF75F
:103A100081FEFA220023920012184B4180210906F0
:103A20008B4202D30122174B524201210291002105
:103A30000191154920000091FDF7D0FC0028BEDB64
:103A400012480121FFF72EFD0120B9E70120FDF703
:103A50006BF80B4B01001800FDF7AEFA00220520B1
:103A60000B49FDF7F5F8EBE7FDF78AFAB4E7C04636
:103A7000086B01104869012067690120DD380010DA
:103A800020690120FFFFFF7F95360010A011002064
:103A90008536001000487047485D011000487047A7
:103AA000F45C011010B5040017480378002B20D0F7
:103AB000002C06D1154B16484380063BFF3B038084
:103AC00010BD052C19D8134BA400E058124901234E
:103AD000013804E001330A800231142B0FD0C25C9C
:103AE000002AF7D1C022DBB25B00920008481343E2
:103AF000E5E7112100F01AF8DAE70020E0E7CA2331
:103B000003489B00DBE7C046506901200904000020
:103B10009C640120DC5C01109E64012010B5024809
:103B200000F0D8F810BDC0463869012030B54B1EF2
:103B3000012900D1A7E0664A11780D092C00303424
:103B40009F2900D9A2E00470012B00D1BEE00F2113
:103B5000147821400C003034092900D998E04470D1
:103B6000022B00D1B2E054782509290030319F2C76
:103B700000D990E08170032B00D1A7E00F212140F4
:103B80000C003034092900D987E0C470042B00D11F
:103B90009CE094782509290030319F2C00D97FE0E2
:103BA0000171052B00D191E00F2121400C00303430
:103BB000092900D976E04471062B00D186E0D4783B
:103BC0002509290030319F2C00D96EE08171072B27
:103BD00000D17BE00F2121400C003034092966D848
:103BE000C471082B00D171E0147925092900303106
:103BF0009F2C5FD80172092B68D00F2121400C0047
:103C00003034092958D844720A2B5FD054792509D9
:103C1000290030319F2C52D881720B2B56D00F21A6
:103C200021400C00303409294BD8C4720C2B4DD0E4
:103C300094792509290030319F2C00D9073101736F
:103C40000D2B43D00F2121400C003034092901D91C
:103C500037310C0044730E2B38D0D1790C09220077
:103C600030329F2900D9073282730F2B2ED00F22BA
:103C70000A4011003731092A01D830321100C173CE
:103C8000102B23D010300023037030BD07345AE7C7
:103C900037310C0063E707316CE737310C0074E70C
:103CA00007317DE737310C0085E707318EE7373183
:103CB0000C0095E707319DE737310C00A3E707318A
:103CC000AAE737310C00C4720C2BB1D1C018DAE767
:103CD0003869012010B588B004000D220021684623
:103CE000FFF7A4F90D22002104A8FFF79FF96A4607
:103CF0004B236846137004A900230D220EF058FBD5
:103D00001521082220006944FFF796F908B010BD7C
:103D10007047C0460022014B1A7070476669012047
:103D20004B790020FF2B0BD18B79002B08D1CB795D
:103D3000012B05D1082A03D9024B8A7809301A7061
:103D40007047C046666901200120704710B50129FF
:103D500001D0012010BD14495379107909781B0254
:103D6000034300209942F5D15378012B08D0022B50
:103D7000F0D1002064220021FDF750FE0120E9E788
:103D8000D17890780902014380200A004000024067
:103D9000014206D0CA091A40480A03231940FDF718
:103DA000C5FE01204042F8E76669012000487047DF
:103DB000045E011070B5050014000120012909D12D
:103DC00053780020012B05D1637912791B0213432C
:103DD000072B00D070BD21002800024A9F3300F05D
:103DE000E9FEF7E75C5D01100123037000487047AE
:103DF000285E01104B780A781B0213438A7810B5AD
:103E000012041A43CB781B0613439622D200934226
:103E100000D010BD0022012011004042FDF786FEB7
:103E2000F8B500F035F90C23194DFF22AB670520DA
:103E30001849FCF70DFF184C402200212000FFF725
:103E4000F5F84027002301262121144A66702783B4
:103E5000A260136063545F31618445396354104A32
:103E600010496360E2602787A1620B606362E262CF
:103E70000EF0B6FA80239B052E64EB6490230A4A69
:103E80000120EA508022094B5202DA64F8BDC04694
:103E90000000115099040020146501208400105086
:103EA000000110508000105010D00100002011506F
:103EB00010B501210520FCF769FE10BD10B50022E8
:103EC0000021024800F004F910BDC046346501200D
:103ED000044B1970002904D080219023024A8902E2
:103EE000D150704762690120002011500B785B06A9
:103EF00002D14B78052B00D070478A78014B1A60AD
:103F0000FAE7C04600001150F0B5C646CB7800B5C0
:103F10009B079C0F2000012C56D08D780A794B7995
:103F20007F211B022940EE0913434A0094462C4F7F
:103F300092195201BA1895700125754055700025E7
:103F40005B055B0DD5701383D476CA00012E2BD090
:103F5000244CA0468C0142443C19A2601560002903
:103F60002BD0214AC9009046414461603F223F3333
:103F70009343022830D032001C4C62442168520125
:103F8000BF181B4ACB18F9602360934226D8194A00
:103F900083064A4013438022120613437A68136053
:103FA000012080BCB846F0BD134CA0468C014244B1
:103FB0003C19A2621560002908D100237601BE19C0
:103FC00073600E4BF360EBE70020EAE7094AC90093
:103FD000904641446162C9E75B00CCE7FDF7D0FD44
:103FE0001465012084001050040010501C69012049
:103FF000FF0F1050000010508000105000011050B2
:1040000010B50EF0EDF910BD10B57F200C0020406A
:104010004000E409110000191A00034B4001C018C8
:1040200000F056F8012010BD146501207F23180010
:1040300010B50840CA090B4203D107497D3B9B1AC2
:104040008B66400080188022044B40010021C0187C
:1040500012010EF0A5F910BD0020115014650120C9
:104060007F22130010B50B400A4200D110BDC909D0
:104070005B005B1804485B01C01800230022034961
:10408000C3700EF08DF9F1E714650120FFF7FFFF13
:1040900080220A4B520410B51A60094B09491A6074
:1040A00010000B689843FBD1802200215201064882
:1040B000FEF7BCFF0922054B5A6710BD00E0004027
:1040C00000F0004008C000400000105000001150F7
:1040D000002310B5C382013382828376016104001C
:1040E0000EF076F9002804D080219023074A890237
:1040F000D15020000EF064F9002802D0012323776C
:1041000010BD20000EF0ACF9FAE7C04600201150B7
:104110007047C0467047C046002070470020704777
:104120007047C0467047C0467047C0467047C0469B
:10413000024B5878431E9841C0B270474462012038
:10414000024B18784007C00F7047C04644620120F8
:10415000F0B5D6464F464646C0B52F4B07009A46A7
:104160001B780E00FF2B01D0012041E000293ED03A
:10417000002154222948FEF759FF0022284C294BE0
:1041800020001A70FCF7FCFE274B1C60274C200017
:10419000143CFCF703FF200001F0B6FB244B254D37
:1041A0001C60254B002B28D02800FFF71DFE234B59
:1041B00018602B78224A00249146204A90460EE04F
:1041C00043461B6862019B18002B10D05B68002BD4
:1041D0000DD0984701342B78E4B2A3420FD3A34209
:1041E000EED8E31A5B014B445B68002BF1D1002051
:1041F000E0BCBA46B146A846F0BD2B78DAE7534694
:10420000310038001F70FFF70BFE0028EFD0380098
:10421000FFF74EFE0120EBE7D4110020446201209D
:104220003C6201206369012098620120CC110020CA
:104230009C62012061690120E93D00109460012029
:10424000F05E0110F0B5DE4657464E464546E0B5F5
:10425000C94B91B003931B78FF2B00D145E1C74BAD
:10426000C74E9B465F46C74B0DAC0293C64B0193AE
:1042700035686A69EFF3108172B61368002BFCD0C1
:10428000BFF35F8FA9612800210001F06BF96A6913
:10429000AB69BFF35F8F0021116083F310880028A2
:1042A00000D122E16378082BE2D89B00FB589F469F
:1042B0006368002BDCD0A0689847D9E77F2221797A
:1042C000B04D0A405300EB189846C8098044404658
:1042D0000123303005799D430571057903339D43F2
:1042E0000571002A00D107E14346A84A1B7D1278D8
:1042F000934200D3F7E0A64A5B011568ED18002D44
:1043000000D1F2E0A36862792078AD69A847AFE7F1
:10431000A04A1378002B00D1E7E01378013BDBB211
:1043200013701378002BA3D10122964D01212B7815
:10433000042013432B703423EA5C8A43EA54EA5C7A
:104340008243EA540133EA5C8A43EA54EA5C8243DA
:10435000EA54237800209B4600F08CFC60222379ED
:104360001A40602A00D1F2E0402A00D1F8E0DB06D2
:10437000DB0E012B00D115E1022B00D1CBE0002B8D
:1043800000D0E4E0202A00D10FE2002A00D0DEE0D5
:104390006379092B00D9DAE07F4A9B00D3589F4606
:1043A000784D2B78DB0700D462E7FFF7BFFE5FE7AD
:1043B000029BDB78DB0700D45AE76068FFF7AAFEB0
:1043C00056E7704D2B78DB0700D451E728780007BB
:1043D000C00FFFF7A9FE4BE723786B4A9946934637
:1043E0006A4B6B4A984692463A00002547461B782E
:1043F000B0464E4691460EE053461B686A019B1834
:10440000002B00D17EE0DB683000984701353B7817
:10441000EDB2AB420CD3AB42EED8EB1A5B015B447E
:10442000DB683000984701353B78EDB2AB42F2D201
:10443000544D542200212800FEF7F8FD1022FF21E0
:10444000281DFEF7F3FD28002022FF2114304646E8
:104450004F46FEF7EBFD00F003FC2379AB7007E756
:1044600023784B4A9946494B924698463200BB46C0
:104470004E460025474691461B780DE053461B6883
:104480006A019B18002B41D0DB683000984701354A
:104490003B78EDB2AB420ED39D42EFD3019AEB1ABB
:1044A00094465B016344DB683000984701353B78F4
:1044B000EDB2AB42F0D2029D542200212800FEF75B
:1044C000B5FD1022FF213548FEF7B0FD280020225F
:1044D000FF2114304E465F46FEF7A8FD00F0C0FBFA
:1044E000FFF720FEC4E6934213D011B0F0BCBB46E8
:1044F000B246A946A046F0BDA3686279207800F0D4
:10450000CDFBB5E646464F461E4DA4E74E465F46F8
:10451000E4E71D4DF6E67023217A0B4217D1C80956
:1045200082460F330B405B0098461848EB18534403
:104530001B7D0078834260D215485B01006881468C
:104540009944002A00D14FE14B46002B5DD12078E1
:104550000021FFF76BFD80212078FFF767FD87E6DC
:104560000F4800F087FB012158460EAAFFF722FCF6
:10457000002800D07CE6EAE7D4110020485E011054
:104580009C62012044620120F05E011061690120FB
:1045900094600120636901206C5E01104862012073
:1045A000B53D0010237A0F2BD1D8D64AEB181B79D2
:1045B0001278934234D3CAD1D34D686900F05AFBC4
:1045C000012158466B690EAA9847002800D04FE693
:1045D0006022150023791D401A42B8D163790A3B45
:1045E000012BB4D800F046FB63790A2B00D17FE1A0
:1045F00058460EA900F0C8FA3AE6834200D0EEE031
:10460000C14B9946002A00D1EEE04B46586900F0B4
:1046100031FB4B46012158465B690EAA9847A7E734
:10462000BA4A5B011568ED18002DC6D18FE7A37952
:1046300099466B789945DBD06B78002B00D02AE146
:104640004B466B70002B00D122E148460138C0B2C6
:10465000FFF724FA002800D174E143780793022B76
:1046600000D06FE10122C179B1468B11491113408D
:104670000A40302112015B0113432A78A8468A437D
:1046800013432B7009239A4682445646BA46C37890
:1046900082781B021343C31805939A4B04939A4BD9
:1046A00008939A4B09939A4B0A93059BB34200D8FF
:1046B0004BE1737801220B2B03D13378F278F61893
:1046C0007378042B00D03AE1059B00279B1B9BB21B
:1046D0000693049B0B921D7819E0099A7B011568DB
:1046E000ED18002D00D12AE1310058462B69069AB9
:1046F00098478446082803D9069A824200D30BE1E2
:10470000049B01371D78FFB2BD4200D217E1AF42D2
:10471000E3D3089B7D1B9C466D016544E4E76B7801
:104720000CAA02321370584601230EA900F042FA77
:104730009EE5E3881A0AD8B20F2A00D907E775491F
:104740009300CB589F460EA800F09AFA5846A179DC
:10475000FFF7B4FB02222B7813432B7088E5E38824
:10476000012B00D0F3E608222B78584693430EA97C
:104770002B7000F009FA7BE5022029780CAB9A1C1B
:104780008B068908DB0F01400B4313805846022338
:104790000EA900F00FFA6BE5E388012B00D0D6E6F6
:1047A00008222B7813432B7022E7237A0F2B00D992
:1047B000CDE6544AEB181B791278934228D2534A1B
:1047C0005B011568ED18002D00D1C0E6686900F0A6
:1047D00051FA012158466B690EAA9847C8E6002A8B
:1047E00000D0B4E6002399466279022013000492B7
:1047F0008343012B11D0002A00D0A8E62B004344AC
:10480000534430331B790CAA9B07DB0F0232BCE701
:10481000934200D09BE63C4DD8E7E388002B12D1B1
:10482000039B1878049B012B23D0FFF7FFFB434623
:104830000221EB18534430331A790A4301211A71CB
:104840001A790A431A714B46002B00D110E55869BA
:1048500000F010FA4B4601215B690EAA58469847B2
:10486000002000F007FA3523EB5CDB0700D5FFE4FE
:10487000BEE6FFF7F5FB43460221EB185344303305
:104880001A798A431A711A7904998A431A71DAE7F4
:10489000FFF748FCACE600215846FFF719FB5846E5
:1048A000FFF7AEFB00229246174AAB780592174AF3
:1048B000049306922A00134B5546984692461B785D
:1048C0000EE0069B6A011B689B18002B56D0DB6824
:1048D00058469847434601351B78EDB2AB4239D371
:1048E000AB42EED8059AEB1A94465B016344EEE7BF
:1048F0000CAB9A1C584601230EA9157000F05AF90A
:10490000B6E4C04661690120F05E011094600120A8
:1049100058620120945E01100B9A012A4DD0002AA2
:104920003CD00023B07804E00133DBB20F71934236
:1049300034D2C118C9B241440D79FF2DF4D04E468E
:104940004546574600236B7001E64E465746FFF733
:10495000E7FB4DE65546542200212800FEF766FB92
:104960001022FF21281DFEF761FB28002022FF21D5
:104970001430FEF75BFB049BAB7061E65546FAE72B
:10498000FFF714FA021E00D1E1E5D37891781B02FB
:104990000B4358460EA900F00DF9E9E565463B00CA
:1049A00031002A000A9800F059FDAC46049B664489
:1049B0001B78BB4200D378E6C1E7174B29699942BF
:1049C000AFD1079AADE7FFF7A7FB021E00D1BEE506
:1049D000584613780EA900F0EDF8C9E52189FFF7D4
:1049E00061F8021EF4D1B2E5022A0FD0FFF796FB60
:1049F000021ECAD1ABE5FFF74DF8021E00D1A6E5B5
:104A0000122358460EA900F0D5F8B1E5FFF746F895
:104A1000021EBAD19BE5C04681500010F8B557463A
:104A20004E46DE4645460C00E0B516001F00002A43
:104A30003CD01F4B00259A46702399461D4B9B4640
:104A400017E05B462000997800F0CAFC00281FD0D0
:104A500021004046FFF758FA002819D0A378DA0958
:104A6000012A1CD00A9A013513702378E418B54244
:104A70001CDA6378052B0BD1E3789B079B0FBB42B5
:104A800006D153464A461B789846A3781A42D8D096
:104A90000020F0BCBB46B246A946A046F8BD0B9A22
:104AA000013513702378E418B542E2DB0120F0E70A
:104AB000D411002044620120702270B5094B0C0013
:104AC0001D788B781A4201D0002070BD064B200063
:104AD000997800F085FC0028F6D021002800FFF727
:104AE00013FAF2E7D4110020446201200B007F206A
:104AF00010B51840DB0934334000044AC018044B99
:104B00001168C01800F028FC10BDC0469862012052
:104B1000446201200B007F2010B51840DB093433BC
:104B20004000044AC018044B1168C01800F03CFC57
:104B300010BDC046986201204462012070B57F24F8
:104B40000F480C4064000419CD09641930342079F1
:104B5000C00701D5002070BD0126257909483543DD
:104B600000782571FFF750FA0028F4D1012223794B
:104B7000934323712379033293432371EAE7C046B9
:104B800044620120D411002070B5094C06000822AF
:104B900020000D00FEF750FA00238021E360A3609F
:104BA0002B783000994300220023FFF7C7FF70BD28
:104BB00024620120F8B5CE4647469046264E80B581
:104BC0008146082230000D001F00FEF735FA4346EB
:104BD000B3600023F381EC79AB7924021C43231CDE
:104BE000BC4200D93B1C9FB2B381002C0ED0002FD9
:104BF00018D04346002B2CD03B1C402F1BD89FB213
:104C000033787F2B1CD80021144A0FE080212B78A9
:104C10000022994348460023FFF790FFC0BCB946E5
:104C2000B046F8BD7F230022317899433B004846C7
:104C3000FFF784FFF2E740239FB233787F2BE2D95E
:104C4000064C3A0041462000FEF7F6F9802122008A
:104C5000ECE70020E2E7C04624620120E461012085
:104C600010B5142200210248FEF7E0F910BDC0463D
:104C700024620120014B18617047C0462462012064
:104C800010B5054C010008222000FEF7D5F90023DD
:104C9000A360E36010BDC0462462012070B5384CAB
:104CA0001D0023780600DA09C9098A4210D00020C5
:104CB000002D00D070BD21003000FFF717F92369E7
:104CC000002B03D022000321300098470120F1E798
:104CD000A0687F2B05D8002834D02A002949FEF788
:104CE000ABF9E289A1685219E38892B24919E281CD
:104CF000A160934214D03F2D12D9A389981A051CA4
:104D000080B240282AD82078ADB27F2828D8002148
:104D10009A4232D01B4A2B003000FFF70FFFC9E741
:104D20002369002B05D0220002213000984700287B
:104D30000AD0802123780022994330000023FFF716
:104D4000FDFEB7E70020B5E700213000FFF76EF960
:104D500030008021FFF76AF90120ABE74025D2E758
:104D60009A4207D0074C2A002000FEF765F98021FF
:104D70002200D0E780210022CDE70022CBE7C04609
:104D800024620120E461012070B50500FFF7D0F92D
:104D9000002800D170BDFFF7D3F90028FAD1C8234D
:104DA0006B43124CE618F1780029F3D010331C192C
:104DB000200000F0C1FB3F28ECD90020F178FFF77C
:104DC00095FE0028E6D0200000F0B6FB3F2808D969
:104DD000074BEA01D218F17840230020FFF7AEFE1E
:104DE000D8E7F1780020FFF795FED3E71C6101209A
:104DF0009860012010B50400FFF79AF9002801D14E
:104E0000002010BDFFF79CF90028F9D1C8226243A9
:104E1000024B01309B181B791840F2E71C610120FE
:104E2000C82310B543430248181800F067FB10BDB3
:104E30002C610120F0B5C824C646802344431F4F8F
:104E40001034050000B53C195B029A4200D31C4A9D
:104E5000200092B200F0D4FB8046FFF769F90028E9
:104E600003D1404680BCB846F0BDFFF769F9002881
:104E7000F7D1C8266E43BE19F378002BF1D020007D
:104E800000F05AFB3F28ECD90020F178FFF72EFE06
:104E90000028E6D0200000F04FFB3F2808D9094B3E
:104EA000EA01D218F17840230020FFF747FED8E747
:104EB000F1780020FFF72EFED3E7C0461C610120E9
:104EC000FFFF000098600120F8B50600FFF730F9F9
:104ED000002801D10020F8BDFFF732F90028F9D1F0
:104EE000C82474432500134F2435ED19280000F021
:104EF00005FB0028EED03F190020B978FFF7F6FD3A
:104F00000028E7D00C4BF401E418210028004022CF
:104F100000F076FBB978051E08D0030022000020BF
:104F2000FFF70CFE0028D5D02800D4E70020FFF7BB
:104F3000F1FDCFE71C610120D860012070B5C824C5
:104F400044430C4B0500E41880235B029A4200D3D3
:104F5000094A200092B200F01BFC0600200000F07D
:104F6000CDFA3F2801D8300070BD2800FFF7ACFF14
:104F7000F9E7C04640610120FFFF0000C82310B5DB
:104F800043430248181800F0D7FA10BD40610120D1
:104F9000F0B50025184C83B0C82200212000FEF790
:104FA00045F8164B21001D70FF236371E1235B025E
:104FB000A360200008234022A37338310095073BEB
:104FC000103000F065FA27000123210020002600A0
:104FD000402278310093B837243000F059FAC036B7
:104FE0003800FBF7CDFF3000FBF7CAFFE561276211
:104FF0002663656303B0F0BD1C61012018610120C8
:105000000B4B196B00290AD01A6A002A0DD0002216
:105010001A621A63DA6100225A63012070471A6A21
:10502000002AFAD0D9611962F7E71A63F3E7C0469C
:105030001C61012070B50F4C052200212000FDF7F6
:10504000F5FF0D4D2B78DA0707D50C4C9B070CD5D7
:105050000121200000F078FC70BD2000103000F02D
:1050600053FC2B78054C9B07F2D4200000F04CFC3D
:10507000EEE7C0461C61012018610120406101205B
:10508000F0B54B79060083B0022B02D18B79022B4D
:1050900003D00025280003B0F0BD214FBB78002BC2
:1050A000F7D18B7809253B700C780C196378242B89
:1050B0000BD1082A02D80FE0AA420DD32378E418B6
:1050C0005D196378ADB2242BF6D0052B08D0042BE4
:1050D00002D163790A2B11D00020FFF755FED9E7E2
:1050E00021003000FFF7E8FC0028D2D0A3787B70C5
:1050F00023785D19E4186378ADB2E8E7094B2778A7
:10510000019301330093022202233000E119FFF7DB
:1051100085FC0028BDD00E35ED19ADB2DCE7C046E8
:105120001C6101201E610120F8B560231400127873
:10513000050013400020202B07D1304A63792779DE
:1051400016781B023B439E4200D0F8BD6378222BA9
:105150001AD007D8202B34D0212BF6D101293ED0EC
:105160000120F2E7232BF0D1012940D00329F7D108
:10517000234B002BF4D0E178A378090200201943D7
:1051800000E000BF0120E0E7012930D00329E7D18A
:1051900001252E00A378E478023924021C431471FF
:1051A000264024321000714000F0CEFB154B002B3E
:1051B000D6D06208002031002A4000E000BF012064
:1051C000C3E701290BD00329CAD10F4B002BC7D04D
:1051D000083200201100FEF70DFE0120B5E707237D
:1051E00021002800094AFFF7E5FC0120ADE7210076
:1051F0002800FFF7C9FC0120A7E7C0461C61012079
:105200000000000000000000F53D001024610120B6
:10521000F0B54F464646D646364DC0B5EA781F0033
:1052200080460C00AB788A423BD08B4210D00020E5
:10523000E0BCBA46B146A846F0BD2F4B002B04D0C7
:105240002E4800F071F9002851D00020FFF79CFD96
:10525000AB78A34201D00120EAE7294B002B02D012
:10526000002000E000BF0020FFF72EFE0028F2D152
:10527000244C200000F042F90028ECD1002FEAD0A5
:10528000BF06E8D1243C4046A178FFF72FFC002858
:10529000E1D0002300224046A178FFF74FFC012017
:1052A000C6E710239A46184EAA4431005046BAB2B7
:1052B00000F06EFA154B002BBFD06B79FF2BBCD0E2
:1052C000002FBAD0F219914603E00136B145B4D0AF
:1052D0006B7932789A42F8D1504600F025F90028CF
:1052E000F3D15346103B597900E000BFEDE700E0F1
:1052F00000BFAAE71C610120000000002C61012012
:1053000000000000406101209860012000000000C2
:1053100000B5030083B0002910D00020012B07D86E
:105320000A78002A04D00B48C2540120012A01D077
:1053300003B000BD1800FEF70BFFF9E7012301A938
:1053400000200B80FEF704FF0028F1D00122014B62
:105350001A70EDE738620120037870B5DB070400AE
:105360000E00DD0F002B17D103785B0701D5280055
:1053700070BD0121300049420DF05AF82378DB0757
:10538000DD0F002B0AD123785B0708D40422237891
:1053900001251343237002E00025E8E700253000D3
:1053A0000DF056F8E3E7C04670B50C000121060089
:1053B000494220000DF03CF833785B07DD0F002BED
:1053C00004DB20000DF044F8280070BD3378DB07C3
:1053D00004D40422337893433370F2E70025F0E7D6
:1053E000437902791B021343C2785B0592075B0D78
:1053F000920F022A1DD0032A0CD00020012A08D1C6
:1054000002394A425141124A94466144994240410C
:10541000C0B2704702394A1E91410E4A49421140BA
:105420008022D20094460020614499424041C0B29B
:10543000EFE7022905D0002040229A424041C0B245
:10544000E7E7054A981843425841C0B2E1E7C04631
:10545000FF03000040FCFFFF00FEFFFF8A1870B54D
:10546000914207D27F264C78052C04D00C7809197C
:105470008A42F8D870BD34008D782C40640004193D
:10548000ED0963550C7809198A42ECD8F2E7C04659
:10549000F0B5C64600B5040006A805788020884609
:1054A00017001E000002824226D8E068002803D0C0
:1054B000012149420CF0BCFF2069002803D00121E2
:1054C00049420CF0B5FF4346236073045B0CED03C7
:1054D0001D430023E0686381A780E58023810028C5
:1054E00001D00CF0B5FF2069002801D00CF0B0FF0E
:1054F000012080BCB846F0BD0020FAE710B5048951
:1055000041898288A3B288B28C4207D31B1A9BB20E
:10551000101C9A4200D9181C80B210BD5100091A03
:105520005B189BB2F4E7C04603894089181A4342CE
:105530005841C0B27047C04610B50489418982887D
:10554000A3B288B28C4207D31B1A9BB200209A42A6
:1055500001D9D21A90B210BD5100091A5B189BB242
:10556000F4E7C04670B5040000690E00002803D0BF
:10557000012149420CF05CFF25896089A288A9B20B
:1055800083B285422CD3CD1AADB2002D2ED0AA42C3
:1055900008D2914230D3891A8BB263819A4203D8E0
:1055A0009B1A9BB29A42FBD9E28821685204520CA2
:1055B00053433000C918FDF73FFD63890125591C8D
:1055C00089B2A2888B4213D900215200891A89B26C
:1055D00020696181002801D00CF03AFF280070BDDD
:1055E0005500ED1A4D19ADB2002DD0D1618989B2A7
:1055F00052009142ECDBE9E789188BB26381CDE779
:10560000F0B546464F46D646C0B506000069894605
:105610009046002803D0012149420CF009FF31894E
:105620007289B5888BB294B2914254D31F1BBFB21A
:10563000002F4AD0BD4205D2AB4251D25B199CB279
:105640002F0074814346B8453DD89FB2A54203D888
:10565000641BA4B2A542FBD9F28831685204520CF3
:10566000904662432B1B9BB2891842469F4225D924
:1056700053439BB21A0048469A46FDF7DDFC434669
:1056800048467D1B64195C4331685044A2B2FDF763
:10569000D3FC7189B588CB199BB26A00994216D99F
:1056A0009B1A9BB230697381002801D00CF0D0FEA8
:1056B0003800E0BCBA46B146A846F0BD48467A4339
:1056C000FDF7BAFCE5E73B1CBFE773899BB26A00B4
:1056D0009342E7DBE4E76F003F1BDF19BFB2A7E7A8
:1056E0005B1B9CB2ACE7C046F8B50400C0680E0076
:1056F000002803D0012149420CF09AFE2589208917
:105700006189A288ADB283B28FB2884229D3DB1BF4
:105710009BB29A4209D8E779FF0906D1E0680028D0
:1057200001D00CF095FE3800F8BD95421ED32B0039
:105730009B1A9BB29342FBD2E28820685204520C1F
:1057400053433100C018FDF777FC6B1C9BB2A28855
:105750009D4218D9002352009B1A9BB20127238136
:10576000DCE75100C91B5B189BB2D2E72B00E28833
:1057700020685204520C53433100C018FDF75CFC02
:105780000135A288ABB252009342E7DBE4E7C046A2
:10579000F0B557464546DE464E46E0B514000500D6
:1057A0000F0083B0002A75D0C068002803D0012103
:1057B00049420CF03DFE2E89E9796A89AB88B6B280
:1057C00092B2C90945D1964200D36DE059008A1AB8
:1057D000B21892B2002189469A4234D29A1A111C08
:1057E00092B2A24200D9211C8AB29146EA885204A0
:1057F000520C90464A46B21892B292464A46D21A83
:1058000092B2934634009E4203D3E41AA4B29C425F
:10581000FBD24246624328681B1B9BB2801842465B
:105820004B4554D34B4639005A43FDF705FCAB8832
:105830005B00564501D89A4503DB5246D31A9BB20A
:105840009A4653462B81E868002825D00CF000FECC
:1058500022E0E9884904490C88469C4227D29642B6
:1058600047D3B11A89B28C465800E11A89B28B46E7
:1058700061460919814208DBD11889B20E1BB6B204
:105880008A46B2423BD9361AB6B2A21992B29246B1
:10589000A146B7E700239946484603B0F0BCBB4693
:1058A000B246A946A046F0BDB21A92B292E70021D4
:1058B0008946002BC7D04146E41A4C431600D11844
:1058C000002289B28A46994693463F199AE7534384
:1058D0009BB21A0039005C440193FDF7ADFB4146D1
:1058E00022004A43019B286892B2F918FDF7A4FBF5
:1058F0009DE75800811A711889B28C46B5E7A14618
:10590000B04200DD7EE7BEE710B50400C0680028A5
:1059100003D0012149420CF08BFD2069002803D0FF
:10592000012149420CF084FD0023E068638123815A
:10593000002801D00CF08CFD2069002801D00CF06B
:1059400087FD012010BDC04670B50400C0680D0081
:10595000002803D0012149420CF06AFD206900288B
:1059600003D0012149420CF063FD7F21E379ED0171
:105970001940E0682943E171002801D00CF068FD6E
:105980002069002801D00CF063FD012070BDC046E5
:105990000022014B5A6070478C60012003BDC04655
:1059A00010B50400FCF706F9A04710BDD022022173
:1059B0001206136D1942FCD0506540BF7047C046B7
:1059C000D0221206136DDB0704D4012120BF136D12
:1059D0001942FBD0D0231B06986D704770B5802408
:1059E000124B6402124A1C6013682342FCD00F2041
:1059F000FBF7DEF8002105000F20FBF7C7F80022B7
:105A00000C4B5A70D0220C4B12061C60136DDB0736
:105A100004D4012420BF136D1C42FBD0D0232900E5
:105A20000F201B069B6DFBF7B1F870BD04200140F1
:105A3000040001409864012004300140F0B50400E6
:105A400087B00F200E001700FBF7B2F80021050009
:105A50000F20FBF79BF80022002300920193012303
:105A6000184A02935370D02304960594002600240C
:105A70000121022003971B06002C14D01A6D10423E
:105A8000FCD05C6540BF1A6D114203D120BF1A6D76
:105A90001142FBD09A6DA2420AD000266C46B20099
:105AA000A458E9E79A6D1A6D1142FBD140BFE5E7B2
:105AB0000136062EF2D129000F20FBF767F807B058
:105AC000F0BDC046986401200D4B0E4A70B593425C
:105AD00010D31C000C4A99180B4D0C4A9268605167
