:020000041000EA
:1000000000B5324B212058609868022188439860DF
:10001000D860186158612E4B002199600221596106
:100020000121F02299502B49196001219960352056
:1000300000F044F80222904214D00621196600F024
:1000400034F8196E01211966002018661A6600F04E
:100050002CF8196E196E196E052000F02FF8012189
:100060000842F9D1002199601B49196000215960AB
:100070001A491B48016001219960EB211966A021F2
:10008000196600F012F800219960164914480160C1
:100090000121996001BC002800D000471248134993
:1000A000086003C880F30888084703B5996A0420EC
:1000B0000142FBD001200142F8D103BD02B5186610
:1000C0001866FFF7F2FF186E186E02BD00000240BE
:1000D000000000180000070000035F00212200005C
:1000E000F4000018222000A00001001008ED00E03C
:1000F00000000000000000000000000074B24E7A12
:1001000000200420F7010010CB010010CD010010E9
:10011000C9010010C9010010C9010010C901001077
:10012000C9010010C9010010C9010010CF01001061
:10013000C9010010C9010010D1010010D301001045
:10014000C1010010C1010010C1010010C101001067
:10015000C1010010C1010010C1010010C101001057
:10016000C1010010C1010010C1010010C101001047
:10017000C1010010C1010010C1010010C101001037
:10018000C1010010C1010010C1010010C101001027
:10019000C1010010C1010010C1010010C101001017
:1001A000C1010010C1010010C1010010C101001007
:1001B000C1010010C1010010C1010010C1010010F7
:1001C000EFF30580103800BE00BE00BE00BE00BECA
:1001D00000BE00BEF2EB8871A4AD0110C4AD0110E9
:1001E0003802001090A31AE700201E49086006C8D4
:1001F00081F3088810471C480068002801D00020BF
:10020000F3E70DA40ECC002902D000F012F8F9E7B4
:100210001649174A002000E001C19142FCD115495E
:100220008847154988471549884700BEFDE701C939
:1002300001C29A42FBD37047C4AD0110C000002038
:10024000281900202CC60110000004200000042002
:100250002CC6011000100420001004200000000033
:100260007047000008ED00E0000000D028190020D1
:10027000206A012025330010C1030010E532001070
:100280007047C0467047C0460300202916D0426F11
:10029000002A13D08069814212D0012A0ED0586BF7
:1002A000814214D0022A09D0186D814211D0032A4C
:1002B00004D0DA6E00208A420DD070470020FCE79F
:1002C0000022D000801A800004301818F5E70122BF
:1002D000F7E70222F5E70322F3E7C04698228258A7
:1002E0000300002A15D0806F814214D0012A10D05B
:1002F000D86F814214D0022A0BD080201858814236
:1003000010D0032A05D084229A5800208A420BD0AC
:1003100070470020FCE7002222329200D058F7E715
:100320000122F9E70222F7E70322F5E710B50248B8
:1003300008F0D0FD10BDC0462060012070B5456FAB
:1003400004000E00002D38D08369202B1ED0012D13
:1003500033D0636B202B20D0022D2ED0236D202B89
:1003600023D0032D29D0E36E0025202B01D02800B7
:1003700070BD3100206F12F0AFF803230028F6D1D2
:10038000DD00ED1AAD0004356519F0E7C06912F023
:10039000A3F80028DBD10023F2E73100A06B12F0B4
:1003A0009BF80028D8D10123EAE73100606D12F0F4
:1003B00093F80028D5D10223E2E70025D7E7C0460D
:1003C000F0B5DE4657464E464546E0B599B003F0D7
:1003D00055F9DA4ADA4F537811781B020B439178BA
:1003E00009041943D3781B060B439B181A683B601A
:1003F0009A1A1188042934D99288002A31D09B583E
:10040000032B2ED1CF4A023B1068CF4D010019407B
:10041000184200D16DE111AC200006F0CFFB6B6FEC
:100420009C46002B1ED0AA69092A00D159E1012B54
:1004300018D06A6B092A00D153E1022B12D02A6D21
:10044000092A00D14DE1032B0CD0EB6E092B00D112
:1004500047E10921BD4809F041FC0421BC4809F0ED
:100460003DFCFEE763461C225A439046A84443469F
:100470001E1D310020004CC84CC14CC84CC1006846
:1004800043460860092098616346982101336B67F1
:100490006B58A8461A001E329200A8501A00AD48A8
:1004A00022329200A850013320006B5005F02AFD43
:1004B00000212B000E006A6F06E01C33191F09682B
:1004C000132900D11FE101369642F6D1B146042E20
:1004D00000D12AE11C2373439C46AC446346181D9B
:1004E0000200210049C949C249C949C2096813200B
:1004F00011606346982198616B584E461A001E326F
:100500009200A8501A00944822329200A850013359
:10051000013620006B506E6706F090FC00212B0026
:100520000E006A6F06E01C33191F09680E2900D1FE
:10053000F2E001369642F6D1B146042E00D1ABE28C
:100540001C2373439C46AC446346181D02002100E3
:1005500049C949C249C949C209680E2011606346A8
:10056000982198616B584E461A001E329200A8508E
:100570001A007A4822329200A85001330136200036
:100580006E676B5007F04EFD002291466B6F42463E
:100590004E4606E01C32111F09681C2900D101E1FA
:1005A00001369E42F6D1B146042E00D16BE21C23E7
:1005B000180070438046A8449C464346191D0B0012
:1005C000220043CA43C343CA43C3126898211A6036
:1005D0004246634693616B5860461A001E32920091
:1005E000A8501A005E4822329200A850012290467C
:1005F0004E4601336B5041465A4B013699461B68B3
:100600006E671A40584E0B4200D129E2574F300016
:100610000B973E6008F0E0FD051E00D021E70100C9
:10062000386808F0F7FB524B2900186038689A4682
:1006300008F020FC4F4B18600D9353461B68002BAD
:1006400000D10EE7002800D10BE71B7F012B00D162
:1006500001E2092B00D004E7037F092B00D000E75B
:100660004369002B00D1FCE61B68002B00DCF8E698
:10067000414B0FAD0993414B16AE0A9312AB99460D
:100680003F4B0C933F4B08933F4B9B462F003F48FB
:1006900002F0F8FF831CF9D038700137BC42F6D164
:1006A0003B4B0F9A9A4200D0B6E02B79012B00D138
:1006B000C6E0022B00D17EE014220021200002F0CF
:1006C0006BFD5B461B68270023605B461B7923712B
:1006D0003878013702F05CFFBE42F9D102F0BAFF70
:1006E000D4E72C4809F0FAFA09212B4809F0F6FA68
:1006F000B7E62A486967286098202950284813607F
:1007000011F02EFF87E68946224809F0E7FA4946AC
:10071000214809F0E3FAA4E689461E4809F0DEFA0A
:1007200049461D4809F0DAFA9BE61321074809F00B
:10073000D5FA3100064809F0D1FA92E64066011078
:100740001860012004600120E460012020400110B5
:1007500054400110195D0010615E00105D5E0010D4
:10076000655E00100060012020600120086001200B
:10077000146001201C600120BC400110C440011025
:10078000CC40011030660110D4400110404B4C00A9
:10079000564C503168400110984001101C66011001
:1007A000850200108946C14809F098FA4946C048B8
:1007B00009F094FA55E610220021200002F0ECFC2A
:1007C000BC4B236053461B68002B00D181E0596964
:1007D00000297ED00F68002F00DC1AE101230022DF
:1007E000043101C901324343BA42FAD163719BB269
:1007F0001B0AA371089B27001B6813934023637394
:100800003F3BA373387802F0C3FE013715ABBB4200
:10081000F8D102F01FFF39E7270014220021200041
:1008200002F0BAFC099A13682360137923713878AF
:10083000013702F0ADFEB742F9D102F00BFF25E718
:100840000AAA927E0AAB5B7E12021A4353461B68C9
:100850000592002B3FD0586900283CD00268002A3E
:1008600000DCD8E001210023043080C80133794343
:100870009A42FAD1059B994200D17FE00023984625
:10088000059B002B11D00EAF8B4802F0FBFE831CA2
:1008900000D1FBE638700137BD42F5D14246013246
:1008A00093B29846059B9845EDD32700142200216A
:1008B000200002F071FC0A9A1368236013792371F7
:1008C0003878013702F064FEB742F9D102F0C2FE77
:1008D000DCE600238AE700239846059B4345D2D1F6
:1008E000764FBB6A98460B9B186808F005FE434696
:1008F000BF6AFF1A002800D09AE00D9B1B681A6996
:1009000090461A7F012A00D18BE041460020DA6828
:100910009B68069308560592801A02F017FB069909
:1009200002F0C9FA079040464078059A40B2801A12
:1009300002F00CFB069902F0BEFA80461422002158
:10094000200002F029FC5E4B5E490798236002F00C
:10095000B2FA002102F098FA5B491390404602F087
:10096000AAFA002102F090FA15972700149038781F
:10097000013702F00DFEBE42F9D1AFE60029AFD03B
:1009800000239846079127004B4802F07BFE831C0A
:1009900000D17BE6387001374F45F5D14B491198AE
:1009A00002F075FA53461F683B6905933B7F012BA4
:1009B00027D0B96802F06BFA02F06AFB0690F8687B
:1009C00002F0C4FA069902F05FFAC3210906071C77
:1009D00002F0A0FA002819D13D49381C02F0B0FA03
:1009E0007F23002803D1381C02F0D2FA43B24146DB
:1009F000059A535401239C46079BE0444345C2DCBF
:100A00006EE74346059A9B009850F3E780235B42CC
:100A1000EDE70123EAE6059B1900012B00D02DE745
:100A2000AEE743461B68079343465B68984685E7F5
:100A300014220021200002F0AFFB0C9A13682360FF
:100A400013792371159727003878013702F0A0FD3C
:100A5000B742F9D142E6037F012B00D100E600E561
:100A6000039202920192A0225202009230002A00C8
:100A7000184B396808F06EF94B46424616481A6022
:100A800011F06EFDC2E51C21144809F027F9310070
:100A9000134809F023F9E4E40E21104809F01EF987
:100AA00031000F4809F01AF9DBE4C0466840011034
:100AB00098400110564C4931404B4C0000400540D5
:100AC000564C523100808C43008089436A71593FF3
:100AD0000000FE42301900202D03001020400110BC
:100AE000544001108023DB051868000F7047C04692
:100AF0000FB400B5084883B002F05AFE049B002BE7
:100B000007D005A91800019102F07AFB034802F012
:100B10004FFE012002F08CFBDC400110244F01103D
:100B200070B5EFF3108C72B60D4D2B68002BFCD016
:100B3000BFF35F8F0724CB08C618C05C01230C40AD
:100B4000A3401C000440034207D118433070BFF398
:100B50005F8F2C608CF3108870BD1000FFF7C8FF0A
:100B60002C0100D0F8B54746CE46884680B5EFF355
:100B7000108C72B61C4D2C68002CFCD0BFF35F8F1C
:100B80009A4222D807210126894602E00132934287
:100B900018D34D4637001540AF40D4080119045D05
:100BA0002742F3D110003C430C70BFF35F8F00224B
:100BB0000D4B1A608CF3108800280EDBC0BCB946C0
:100BC000B046F8BD01204042EFE7BFF35F8F00233E
:100BD0002B608CF31088012040424346002BEDD05F
:100BE0000898FFF785FFC0462C0100D0044A107812
:100BF000431CDBB2172B00D9102313707047C0467B
:100C00008811002010B5064B064C82B001000093FD
:100C100018221F232000FFF7A5FF02B010BDC04619
:100C2000EC4001105C6501200021044B044ABFF335
:100C30005F8F02C39342FAD17047C046000100D0D3
:100C4000800100D0054B064A1360064A13605360CA
:100C50009360D3601361536193617047808080809B
:100C600000E400E004E400E01F2318401E3B834042
:100C7000002905D0C021044A490053501360704731
:100C8000802201498B50FAE700E100E00122824016
:100C9000034B1B6813405A1E9341D8B27047C0469D
:100CA00000E100E001238340014A13607047C04621
:100CB00000E200E0064B10309B688000C358054AF4
:100CC00000209B1A47229A424041C0B27047C0465A
:100CD00000ED00E08C11002010B5EFF3108C72B61F
:100CE0000F4A1368002BFCD0BFF35F8F0D4B103001
:100CF0009B6880001B580C4A934201D099420CD14A
:100D0000084B9B681950BFF35F8FBFF35F8F0022C2
:100D1000034B1A608CF3108810BD00F0AFFFC04683
:100D2000240100D000ED00E0C1010010F0B55746ED
:100D30004E46DE464546E0B58A4685B00600EFF3EE
:100D4000108972B663490B68002BFCD0BFF35F8F2C
:100D50000021614B59568C46002900DAB7E0490062
:100D60000D005E4C6544AD0067190291B9791036EB
:100D700019705B4BB1009B6801915B58191B4729A7
:100D800035D8012118008843C679964200D875E00D
:100D90009B46029B019E9846039507E04D006D1807
:100DA000AD006519EB7993424ED9280006214156D2
:100DB0000029F3DA45465B4601960295061D494D2A
:100DC0000396039E043FBF1B3F05474E7F0D3743ED
:100DD0006646878086710298604480002418E2711C
:100DE00052464248A5802060A171A26018E04049A7
:100DF0008B4200D06BE03F4B3B4963533E4B023587
:100E0000043B65195B1B1B055B0D0B437B803B4B58
:100E1000FA71BB80FF23BB715346BB6001233B4388
:100E20002F4A019992685350BFF35F8FBFF35F8FD2
:100E30000022284B1A6089F3108805B0F0BCBB462D
:100E4000B246A946A046F0BD01964646029686885F
:100E50005B467605B346061D039D03965E46361532
:100E6000B346061DB046C3445E4604356519751B7E
:100E7000E0262D056D0D36023543A2E7204BFA71B1
:100E80009C46030066461B1B5B415E43360DB44621
:100E9000AE1CB046A0444646164B6353164B043571
:100EA000043B9B1B1B05104E5B0D33437B8063197A
:100EB000C31A043B1B055B0D3343BB806346BB7108
:100EC0005346BB60094B03603B000B43A8E700F0AF
:100ED000D5FEC046240100D0196A01208C110020E3
:100EE00000ED00E001BD000000E0FFFF0148804789
:100EF000C101001000A1FFFFD411002001BDFFFFC0
:100F0000AAAA000070B501240443EFF30581EFF3B2
:100F1000108C72B6274A1368002BFCD0BFF35F8F8A
:100F2000254A0500254BAD1A6D416B431B0D244D21
:100F30008900AE685BB27658A64224D0062151568D
:100F4000994224D01221515699422AD01E2151563D
:100F5000994228D02A215156994226D036215156FD
:100F6000994224D0422151560524994210D0154A65
:100F7000117813708171BFF35F8F00220D4B1A60DF
:100F80008CF3108870BDAA680F4C5450EFE7002412
:100F90006100091989005218FF2191710B49918054
:100FA000E5E70124F4E70224F2E70324F0E7042450
:100FB000EEE7C046240100D08C110020AAAA000050
:100FC00000ED00E0196A0120C101001001BDFFFF22
:100FD00010B5084B084C82B0010000930022052395
:100FE0002000FFF7BFFD002801DB1F23181A02B005
:100FF00010BDC046084101101D6A0120024B9C46ED
:1010000061448900016070474000003470B5114CA4
:10101000114DAC420FD2FF262368002B0CD0FFF7F6
:10102000E5FD01002000FFF7E9FFA680BFF35F8F19
:101030000834AC42F0D370BDFFF7D8FD01002000AA
:10104000FFF7DCFF2671BFF35F8F0834AC42E3D3B8
:10105000F1E7C046181900202819002010B5040037
:10106000FFF7C4FD01002000FFF7C8FFFF23237135
:10107000BFF35F8F10BDC04610B504000120FFF71D
:10108000C1FD034BC3189B002360BFF35F8F10BDEE
:1010900040000034034B9C46614489000160BFF36B
:1010A0005F8F7047400000340A4B1968EFF31080DF
:1010B00072B60A68002AFCD0BFF35F8F1B68BFF3CB
:1010C0005F8F00221A6080F3108840BF002000214B
:1010D0007047C046F8690120F0B5DE4657464E46D7
:1010E0004546E0B587B0EFF30583032201251A409A
:1010F000954091008846A946B34B03925C58B34B88
:101100001D60B34B04934B46B24843630823E55E2E
:10111000002D37DAA3881BB2002B00DBADE0A379EA
:10112000002B00D0EEE00823E05E002820DB430027
:1011300062691B18DB00D3189E68DD68731C00D140
:1011400011E1A44801004144826A0B69B71A9B1A55
:101150009F4215D30123026A039883401A420FD09D
:101160009C4800F04FFB8D4202DCCCD18642CAD9AC
:1011700040BF07B0F0BCBB46B246A946A046F0BD92
:101180000E61EDE762696B0092465B19DB009A44E1
:1011900053469E68DF6800F035FB8F42BADC00D111
:1011A00003E1002F00DAE8E05246534652691B691A
:1011B0009346049A934200D1D9E052460821605EDA
:1011C00052880004594610439847009001910099B5
:1011D000019A0B001000134300D1CEE013000A0067
:1011E000B61A9F41002806DB7A4800F00BFB009EF0
:1011F000019F36184F4153469E60DF6000229A5E81
:10120000002A00DA86E7530099186069C90041187E
:1012100002938B68C9689B46B94200DD7AE702D128
:10122000B34200D976E708239C46A4440595654659
:101230002281A446029B2C0006E053009918C900A5
:1012400041188D68C968AB469B18DB00C318B942CA
:1012500006DC00D1B3E01C000023E25E002AECDAD9
:10126000230064469C4653461A806346059D1D80B4
:10127000A3881BB2002B00DA51E72269EFF310813B
:1012800072B61368002BFCD0BFF35F8F0123A788D1
:101290005B42A3803FB22369BFF35F8F00221A60D5
:1012A00081F31088002F00DA39E723000833220089
:1012B0009A4666697B00DB19DB00F3189968504693
:1012C0008C460824115FDD68002910DB029306E0DC
:1012D000AB4244D00023E15E2000002906DB4C0035
:1012E0006418E4003419E368AB42F1DD029B078027
:1012F00000201F5E1980002FDCDA1400A379002B78
:1013000000D110E70023A37126000823E15E083610
:101310004B1C00D12CE70800A246656902E03E00A4
:101320004B1C1AD04B005B18DB00EF180A008C46F0
:10133000E95E7B881BB2002BF1DA01235B42DC17EC
:10134000BB60FC60824205D0534631801B893B80E4
:1013500053461A8160464B1CE4D15446E5E6A36827
:101360006345B7D9C2E76B1C00D0EAE6F8E65B46F6
:1013700058461B69984700281BD153461B88226991
:101380002381EFF3108372B611680029FCD0BFF3FC
:101390005F8F514662880A8022696580BFF35F8F44
:1013A0000021116083F31088B4E6864200D8F8E685
:1013B000B0E65B461A685B680092019307E7B345A5
:1013C00000D848E74CE7C046DC6901203C70054086
:1013D000D91000100040054070B52E4C2569002D35
:1013E00004D00A212C48FFF709FE70BD2B4E0321C3
:1013F000300000F0FDF9E660FFF7F8FB284B032210
:101400009C46D02322701B061B6801216370254B6C
:101410006044A3600F238000206102206380636921
:101420004942A18019800231198647311D835852E3
:1014300018315A5275325C39995218320131995229
:101440001832013199521832013199520835183247
:101450009D52023118329952183201319952183284
:101460000131995218320131995218320131995291
:101470001832013199520C4B0C49DC600130356255
:10148000FFF72AFC01210320FFF7EEFB084B1D604C
:10149000A7E7C046F8110020F86901200040054088
:1014A00040000034FFFF1000DC690120D91000105B
:1014B0003860054000487047F8110020F8B51F005B
:1014C00008AB1B7804001600002B08D100F0A2F92D
:1014D00032003B00121A8B41002B00DA52E02269E5
:1014E000EFF3108072B61368002BFCD0BFF35F8F50
:1014F0000223E15E63694A005218D2009B182269F8
:10150000002936DB1D886580BFF35F8F00251560DD
:1015100080F31088069A9E60DF601A61079A5A610C
:101520005A8801325204520C101C002A1FD082B279
:101530005880080410432669EFF3108772B63268AA
:10154000002AFCD0BFF35F8FA2881A80A180236994
:10155000BFF35F8F00221A6087F310880A4923784F
:101560008C4601329A40E36863441A60F8BD01205A
:10157000DDE7BFF35F8F0023136080F31088012045
:101580004042F3E70020F1E73C20000070B5010085
:101590000469EFF3108C72B620680028FCD0BFF30A
:1015A0005F8F02200D5E4C6968004019C00024184E
:1015B0000869002D36DB26884E80BFF35F8F00263A
:1015C00006608CF31088E36063880498013320611F
:1015D0005B0405985B0CA26060611A1C002B1FD095
:1015E00093B22804628018430A69EFF3108C72B634
:1015F0001368002BFCD0BFF35F8F8B8823808D8016
:101600000B69BFF35F8F00221A608CF310880B7890
:1016100001329A40CB6808498C4663441A6070BD19
:101620000122DDE7BFF35F8F002303608CF3108896
:1016300001204042F3E7C0463C20000010B543893A
:101640000A1493421ADD53009B184269DB00D31839
:101650000469EFF3108C72B62268002AFCD0BFF345
:101660005F8F5A88090494B2090C8A4208D0036932
:10167000BFF35F8F00221A608CF31088002010BD2A
:101680008022120214435C80012302698371BFF33C
:101690005F8F002111608CF31088044902788C461A
:1016A0009340C268012062441360E8E73C200000D8
:1016B00040787047F0B54546DE4657464E46E0B5A1
:1016C00004000D0085B0EFF305838946002B37D168
:1016D000434B9A461B6883422DD0424B9B46DB68A6
:1016E00098465B461B784046039300F08BF84246D1
:1016F000039B060004339B009B580F001B1A290014
:1017000020000022801BB9418A4228DC25D020BF5E
:10171000354B586A48452ED3401B9A6A431E984160
:101720000023A2425B41184305B0F0BCBB46B24661
:10173000A946A046F0BD53465B688B42CDD1E6E793
:10174000294900204B6AAB42EED38A6A5B1B591EC3
:101750008B41A24240411843E6E78342D7D900F0CB
:1017600059F822002B00121A8B41002B05DA1E4A71
:10177000536A4B452AD20020D6E7002301931B4B26
:101780002200009358462B00FFF700FF011EEEDDFC
:1017900053461C605D60144B5A6A4A4514D39B6AD9
:1017A000A3420FD35846FFF749FF0F4A0020536A60
:1017B0004B45B9D3926A5B1B591E8B41A2424041F3
:1017C0001843B1E74A45EDD120BFEBE70020926A0C
:1017D0005B1BA24240415A1E93411843A4E7C046F6
:1017E000F0110020F811002000400540A910001061
:1017F00010B5024A0248FFF793F910BD24410110C9
:10180000606501200300416A0A00986A596A8A42A9
:10181000FAD17047034B596A0A00986A596A914293
:10182000FAD170470040054070B504000D00174A1A
:10183000536A1900966A536A8B42FAD13000190034
:1018400024184D41AB4216D813D0104B2A005B6AC6
:101850009D4203D90D494B6A9342FCD3934207D171
:101860000A4A02E0516A994202D1916AA142F9D32F
:1018700070BDA642E9D9054B5B6A1C005A1CEFD02B
:10188000012201246442E5175242E3E7004005408B
:10189000F8B5DE464E4657464546E0B58B46050050
:1018A0000A991800160000F04FFB0A9B6C001F02FB
:1018B000324B64199C46A4006444636881469F428D
:1018C00000D967602B1FDBB29846012B30D9C023AB
:1018D00080229B01E31812011A60294BAD0059596F
:1018E0009A4600291BD17301E026226853401E400E
:1018F000802342465B01E3181E60012A30D9802311
:1019000080229B01E31812011A6053464A46676021
:101910005A51F0BCBB46B246A946A046F8BD58692C
:1019200000F012FB013043001B18033BFDD2DAE745
:101930005B46012BCBD1C02303229B01E3181A6025
:10194000023AA3681A42FCD07301E0262268AD0077
:1019500053401E4080230A4A5B019246E3181E60F2
:101960005A462168514003220A401A6001225B4610
:101970009A40A3681A42FCD0C1E7C04600800040EC
:1019800064650120F0B546464F46D646C0B51F00F7
:10199000344B44009C462418A40064446368884681
:1019A0001600FF2B02D880235B006360031FDBB2AD
:1019B0009A46012B30D9C02380229B01E3181201E3
:1019C0001A60294B85005959994600291BD173018A
:1019D000E026226853401E40802352465B01E318F4
:1019E0001E60012A30D9802380229B01E318120156
:1019F0001A6080235B0063604B465F51E0BCBA46CF
:101A0000B146A846F0BD586900F09EFA0130430087
:101A10001B18033BFDD2DAE74346012BCBD1C02391
:101A200003229B01E3181A60023AA3681A42FCD011
:101A30007301E0262268850053401E4080230A4A35
:101A40005B019146E3181E60424621685140032223
:101A50000A401A60012342469340A2681342FCD018
:101A6000C1E7C0460080004064650120014B800052
:101A7000C058704764650120F8B5040021481E0075
:101A800017000D0000F060FA0100380000F05CFA69
:101A9000069B36041B031E432368002B20DB1A4BD6
:101AA0001A49E3185A1E93418022920194465B42E0
:101AB0001B0B174A1B0363441360164A13601F0075
:101AC0000A689743FBD1144B2560E2182123A060DC
:101AD00013602368002BFCDA0823E6601360F8BD6E
:101AE0003F2322681340AB42D9D1A3681B051B0DCD
:101AF0008342D4D1EE22E368D2021340B342CED166
:101B0000EDE7C046001BB7000040FDBF08C0004025
:101B100000E0004000F000400430000010B58024D8
:101B20001C4BE4051C6000281AD001231A4C1843F2
:101B30001A4BDC611A4C44401C6259629862802145
:101B4000144BC9051960174817490860E021C904FA
:101B50001960002A07D18022144B12061A6010BDAA
:101B60000E4BD861EBE753019B1A9B009A18802318
:101B700012015B049A4209D213000D490B60074B16
:101B80005A608022094BD2051A60E8E7094B1A0017
:101B9000F3E7C04600B00540D3C007B00080054061
:101BA0002D3FF84FFCFF01000820014000A0054038
:101BB000CC690120FFFFFF008023024A9B000B43FA
:101BC000D362704700800540002310B50100988A59
:101BD0001B8B984710BDC046162310B5010018880E
:101BE00002331B88984710BDF8B54746CE4680B5EE
:101BF0000F1E18D014239946043304000025012633
:101C000098464B461888434621681B88984701C46C
:101C1000431E984101350640AF42F2D13000C0BCAE
:101C2000B946B046F8BD0126F8E7C046002370B5B6
:101C300004000D00988A05491B8B9847030000207B
:101C4000002C01DB0130A0402900984755420000DC
:101C5000AA23064A1B0113608D235B00D36004494D
:101C6000044B19605368002BFCDA704700400240B7
:101C700000B0FA00006002407047C04610B501484D
:101C8000FEF736FF4841011070B5074D074EB542CB
:101C900009D20024013E761BB60808CD98472300E0
:101CA0000134B342F9D170BDD03F01101040011092
:101CB00070B5074D074EB54209D20024013E761B90
:101CC000B60808CD984723000134B342F9D170BD5E
:101CD0000440011010400110054B064A06491A60E5
:101CE000064A074B1A6010000B689843FBD17047F7
:101CF00000E00040BFCDFBFE08C00040FE7F3C007E
:101D000000F00040044BDB6C002B03D18022034B1E
:101D1000D2021A607047C046000011504C2011508A
:101D2000044A054B1A60054A1368DB018033FBD176
:101D30007047C046FFFFFF0100F0004008C00040B0
:101D40004022034B9A675A671A67DA667047C046A3
:101D500000F0014010B5FEF767FF10BDF8B5274948
:101D6000274C284D641AA4082200302C00D93022B8
:101D70002800920001F016FA2F2C3BD830202F219A
:101D8000A700EB195B07204A001BDB0F091B052985
:101D900016D92600002B01D0EA51661CC01AE318A0
:101DA0009B004108EB18C900C9181A605A60083333
:101DB0008B42FAD1012303421CD098438419A70017
:101DC000EA51631C2F2C15D09B00EA50A31C2E2C2B
:101DD00010D09B00EA50E31C2D2C0BD09B00EA5046
:101DE000231D2C2C06D09B00EA50631D2B2C01D008
:101DF0009B00EA50054B9D60F8BDC04600010010F5
:101E0000C001001000000020C101001000ED00E042
:101E1000002310B5294C82B0A367FFF719FF0122F8
:101E2000274B1A60636C012BFCD10322254B1A60EF
:101E3000224A936B012BFCD1013300930121224AEA
:101E400022480433FFF718FE052301210093204A9E
:101E50002048FFF711FE0022022104201E4BFFF74D
:101E600091FD0022012105201C4BFFF78BFD002274
:101E7000002107201A4BFFF785FD002200210820D2
:101E8000174BFFF77FFD8023DB000093002200212A
:101E90000920134BFFF7FCFC0022104B0021062009
:101EA000FFF770FD0420FFF7E1FD0E4900F04CF84C
:101EB00001000020FFF780FE02B010BD008000404E
:101EC0003CB0004030B00040002F68590080024014
:101ED000008C864700C00240001BB70040597307C2
:101EE000006CDC0240420F0001480421014B1847FE
:101EF00010120020E91B0010124A936F9B0815D2A4
:101F00009066D166002905D0FFE7FFE7FFE7516F34
:101F1000106F704704B580210906C2175140002890
:101F200000D0C84312F04CF8002104BDF0B5146E87
:101F3000556E576F166FFFF7E3FF146655665767C8
:101F40001667F0BD000000D0114A936F9B0813D2B2
:101F500010665166002905D0FFE7FFE7FFE7516FE4
:101F6000106F704704B5002801D00020C04312F064
:101F700027F8002104BDC046F0B5146E556E576FAA
:101F8000166FFFF7E5FF1466556657671667F0BDD5
:101F9000000000D094464A4A926F9208624601D2ED
:101FA00028E0C046F0B5464E346E756E776F366FDA
:101FB00000F020F89446424A146655665767166743
:101FC0006246F0BD94463E4A926F9208624601D244
:101FD00054E0C046F0B53A4E346E756E776F366F8A
:101FE00000F04CF89446364A1466556657671667F3
:101FF0006246F0BD002B24DB11D000293EDA00B58B
:10200000C943404200D1013100F038F8C943404291
:1020100000D10131DB43524200D1013300BD002A1F
:10202000EBD1002801D1002905D00020C90FC90734
:1020300001D1C043410800B511F08AFF00220023FE
:1020400000BD00B500290ADBDB43524200D1013359
:1020500000F014F8C943404200D1013100BDC9432A
:10206000404200D10131DB43524200D1013300F044
:1020700005F8DB43524200D1013300BD002923D1D2
:10208000002B18D1002A0CD0BC460D4F38667A665A
:1020900000210023FFE7FFE7FFE77A6F386F67460D
:1020A0007047002801D00748010000B511F050FF2B
:1020B0000022002300BD02000B0000200021704719
:1020C000000000D0FFFFFFFF002B00D0BFE0130C8B
:1020D00028D1002AE7D080B4114F39667A66FFE72D
:1020E000FFE730B4040C7B6F396F1B0423433B665E
:1020F0007A66FFE7FFE7FFE7C04684B27B6F3D6F7C
:102100001B0423433B667A66FFE7FFE7C0460023D4
:102110002C042D0C7A6F386F00196941B0BC7047E0
:10212000000000D0F0B594460025140E01D1120233
:102130000835140F01D112010435940F01D192001A
:102140000235D40F01D152000135D40B0134254F93
:102150007C66254C3C660E0C93B2FFE7FFE7FFE779
:102160003C6F6643360C7703BE467343DF0B5B045C
:10217000C01AB941130C7343DB18C91ACE08664361
:10218000360CB64493B273431F0F1B01C01AB941FA
:10219000130C73431F0B1B05C01AB941860D8F0228
:1021A0003E436643360C092D24DB520A7243801AE3
:1021B0007703460A6643360C16235B1BDE40DF407E
:1021C000BF1964466643821B70460435063301001E
:1021D000D940A840C01900D30131A24206D2002341
:1021E000F0BD0000000000D0FFFFFFFF121B013018
:1021F000F3D3F1E709277F1BFE406446A2B2724386
:10220000801A00D20139220C7243130C1204821A74
:1022100099410B007046043513370100F940A8407E
:10222000801900D30131002B02D1A2420AD2F0BDA5
:10223000013000D30131121BFAD2013BF8D1A24286
:1022400000D2F0BD013000D30131121BF7E7F0B529
:102250001C0C00D080E00CB400251C0A04D11B0229
:10226000160E3343120208351C0B04D11B01160F46
:102270003343120104359C0B04D19B00960F33436A
:1022800092000235DC0B02D192185B4101351C0033
:10229000971864410134464F7C66464C3C660E0CF0
:1022A000FFE7FFE7FFE7C0463C6F6643360C770366
:1022B000BE4697B27743C01B00D20139C01B00D283
:1022C00001399FB27743C91BC91B170C77437E04A2
:1022D000FF0B801BB941CE086643360C0C2D33DB57
:1022E000B644120B1F053A431B0B97B27743C01B32
:1022F00000D201399FB27743C91B170C77433E04C4
:102300003F0C801BB941860D8F023E43664329274F
:102310007F1BFE400C3D7746AF40BF1930BCA2B2D8
:10232000ABB272437343801A9941220C7243130C6F
:102330001204801A994102000B000137001BA941C9
:10234000F9D2781E0021F0BD0C277F1BFE40774696
:102350007F0BAF40FF19E0E700245D1C07D0144F4E
:102360007D663966FFE7FFE7FFE7FFE73C6F95B261
:102370009EB265436643401BB141150C1E0C65437C
:10238000664336042F0C3E432D04401BB141994255
:1023900004D202000B0020000021F0BD01D19042C8
:1023A000F7D3801A994101349942F2D3F6E700003D
:1023B000000000D0FFFFFFFF48404140484018B4F4
:1023C0001B4B5B68FC46019308BD04DF232800100B
:1023D00018B4174B1B68FC46019308BD00DF2D287D
:1023E00000109446134A926F920809D2624618B4BC
:1023F0000F4BDB68FC46019308BD0CDFE52A00109B
:102400000C4AF0B5146E556E576F166F6246FFF7A3
:10241000EEFF084A1466556657671667F0BD18B494
:10242000034B9B68FC46019308BD08DF8929001017
:10243000F85A0120000000D0FFB550404240504003
:1024400059404B40594000E0FFB5154F4C00640D1A
:1024500003D0BC4204D10C0314D80020090D090597
:102460005C00640D03D0BC4204D11C030AD80022D6
:102470001B0D1B0501264B4009D44B4003D58B4255
:1024800000D18242FFBD9942FCD19042FFBD0B4377
:10249000DB1803431343F5D0C9434918FFBD0000BF
:1024A000FF07000000B5FFF7CFFF01D0002000BDFF
:1024B000012000BD00B5FFF7C7FF804100BDC04649
:1024C00000B5FFF7C1FF01D9002000BD012000BD0C
:1024D00000B5FFF7B1FF804100BD012040054A0073
:1024E000121804D85A00121801D800207047012091
:1024F000704700000021002805D17047C1174840EF
:10250000401AFAD0C90713B5064B1B6898470CBC94
:10251000441CA2401005120B0349091B090519436D
:10252000114310BDF46901201F04000010B54C00D8
:10253000620D8023D218DB00D21A5B057E2A10DDE3
:102540009E3A13DACC170903490819435242D14085
:10255000640001341532202A05DAD0400843604374
:1025600010BD002010BD0846604310BDC80FC01844
:10257000013810BD18B4044BDB6DFC46019308BD57
:102580005CDF952D00100000F85A0120C94211D3DC
:1025900000B549004908002200F018F8002904D4C9
:1025A000002240428A41114600BD802109060020D8
:1025B00000BD000018B4044BDB6EFC46019308BD5F
:1025C0006CDF952C00100000F85A012018B4044B61
:1025D0009B6FFC46019308BD78DFB32C0010000010
:1025E000F85A012018B4044BDB6FFC46019308BD78
:1025F0007CDF212D00100000F85A0120132370B554
:102600001D78012D19D014DD1F48FFF7E5FA0600EB
:102610001E48FFF7E1FA1E4C80223100200000F036
:10262000C1FD022D2DD01B48FFF7CEFA1A4B1860C2
:1026300070BD1A4B164CA364F5E7184B144C23607D
:102640006360A360E36023616361A361E36123626C
:102650006362A362E36223636363A363E36323644C
:102660006364A364E36423656365A365E36523662C
:102670006366A366E36623676367A367E367A36490
:10268000D1E7064BA364CEE7534400005346000055
:10269000F85A01204C330000F4690120F1270010A2
:1026A000244A4B0094465B0D6344F0B504000D00D2
:1026B0005A1C21DB5A1C35D0342B1CDA3326F61A6F
:1026C0003700203F1CD40121B9400B000121B1404B
:1026D0000A0012196B41002F1EDB0224BC402100AE
:1026E0000224B44020001600002544428D412640BB
:1026F0002B4030001900F0BDCB0F0020D907FAE7BE
:1027000020210120891BC8400121B14003000A009B
:1027100012196B41002FE0DA20240225A41BE540AA
:102720002900DDE7CB0F044ADB071A430020110024
:10273000E1E7C04601FCFFFF0000F03FF0B50B00F1
:102740004900020085B0490D40D02748091837D408
:1027500034261000761A1900002E2FDD31002039A2
:1027600038D4012000240025884000940195019070
:102770000121B140009101204042C117009C019D00
:10278000001969410D0000210400D80F00274642BE
:102790008F4102940395029C34402000039C3C40EE
:1027A000210012184B4100980199002746428F41A1
:1027B0003400144020003C001C40210005B0F0BD56
:1027C00000200021002BF9DA0849F7E7DB0F002091
:1027D000D907F3E720210120891B00240025C840E8
:1027E000009401950190C3E701FCFFFF0000F0BFDA
:1027F00007B5604601880A0A0230DF2AFAD1C9B259
:10280000820804D3028840880004104300E0006876
:10281000014A5050039007BDF85A01200FB403BC81
:102820000CBCF0B50124E407634000E0F0B50C0DEA
:10283000CF0F661E3605891B640503D3C94340428A
:1028400000D30131640D03D0661CF60A07D0E41BE7
:1028500000207F00791C89078912803C24031D0D0C
:10286000DF0F6E1E36059B1B6D0503D3DB43524203
:1028700000D301336D0D03D06E1CF60A07D0ED1B9B
:1028800000227F007B1C9B079B12803D2D032F1B8A
:10289000661B58D4A446202E46DA20371400BC40CC
:1028A0001D00BD40F24033412A4380185941CB0FEF
:1028B00005D0C943C04300226442504151416246A1
:1028C0004D0D28D10D0D07D100281FD024194041EE
:1028D0004941013A0D0DF9D0640006D3013000D30F
:1028E0000131002C01D140084000013A0BD4941C66
:1028F000E40A04D112051144DB071944F0BDD907DD
:10290000204B194300E0D9070020F0BD0029DDD19C
:10291000002CDBD1F0BD0132C6074008CD072843AB
:102920004908002EE1D0D9E73C2E29DA203E403775
:102930001400BC4000D00124F24014431A00BB40F4
:102940001C43D317ACE7AC46202F08DA203604002E
:10295000B4400D00B540F84039412843A5E73C2F6D
:102960000CDA203F40360400B44000D00124F84087
:1029700004430800B1400C43C117EAE710001900F6
:10298000002494E70000F07FF0B50C0D661E3605BC
:10299000891BE60A6405640D02D0651CED0A04D0AB
:1029A000002001210905803C2403A4461C0D671E5C
:1029B0003F05DB1BE70A6405640D02D0651CED0AC8
:1029C00004D0002201231B05803C2403774064448B
:1029D00097B484B296B27443070C7E43150C6F43D0
:1029E00080B26843361802D3012000043F18300437
:1029F000350C00197D41844688B29AB250430C0CC4
:102A000062431F0C7C438EB27E43921902D301268F
:102A10003604A4191604170C3618674101BC81B29C
:102A20009AB25143040C62431B0C5C4380B258437E
:102A3000121802D30120000424181004130C4018AB
:102A400063412D185E410020474106BC88B293B215
:102A500058430C0C6343120C544389B251435B1826
:102A600002D301210904641819041A0C09186241DF
:102A70006D1856410020474118BCF902720D1143F0
:102A8000F0026A0D1043ED020A0D03D16D194041A9
:102A90004941013B124E9B1B7600B3420ED26D00A2
:102AA00007D30130002671416646354301D1400805
:102AB00040001B05C918E4072144F0BD0BDA0133BF
:102AC00006D1013004D101314F0D01D04908F2E7A0
:102AD000E1070020F0BD013631050020EBE70000E2
:102AE000FF030000F0B51C0D671E3F05DB1BE70A66
:102AF0006405640D02D0661CF60A04D0002201238E
:102B00001B05803C2403D0252D060026F6432E66A7
:102B10001E096E66CE0FF619B44649004F0D02D05D
:102B20007E1CF60A03D000200021403F3F033E1BDD
:102B3000B600B444013F7F05C91B49082E6F01361A
:102B400076089C02950D25437543ED137543AD132F
:102B500001356D10F603761B0CB4CC02450D2C43E9
:102B6000A2B2B3B25A43270C7B43350C6F43A4B2D5
:102B70006C431B1902D3012424043F191C041D0CAF
:102B8000A4187D4124196D41009A91B2ACB2614301
:102B9000170C7C432B0C5F4392B25A43A41802D308
:102BA00001221204BF182204230C52187B41019CFD
:102BB0006C431B19520ED9010A434401A01A81B279
:102BC000B2B2514303145A43360C734387B277436E
:102BD000D617D21900277E4136049B191704160C0C
:102BE0007F185E417316ED18F3010026803375419E
:102BF000A90F06D16400690AE8055B0A184309D2E7
:102C00002FE00422944480337541A90AA8059B0A49
:102C1000184326D3404149412404009A019B0D00EA
:102C20005543641B4343E41A95B286B27543170CAF
:102C30007E43030C5F4392B25A43B61802D301227B
:102C40001204BF183204330C52197B4152429C418A
:102C5000002C02D40022013051414008CA07104321
:102C6000490802B06246D7079210084BD218084BA9
:102C70009A4203D212058918C919F0BD0020002A12
:102C800001DC3900F0BD01331905F5E7FD03000053
:102C9000FE070000002200B500F00DF8CA179A42A6
:102CA00000D100BDD8430121C907414000BD00004B
:102CB00000220B150AD410B5944600F0A7F814149E
:102CC000013400DA0021CB17144C204700200021EA
:102CD00070476244343A0CD40C2A07DA040091405D
:102CE000904052422032D440214310BDD843D943B2
:102CF00010BD203207D40C4694405242203211417C
:102D0000D040204310BD0800C917203203D45242DE
:102D10002032104110BD1800190010BDD32C001036
:102D20004A00520D144BD21A13DDFF2A1EDAD205C7
:102D3000CB0FDB071A43C300400F0903490A0843BE
:102D400010435B0001D301D0013070474308FBD230
:102D5000704702D0C80FC00770470A031213013230
:102D6000F8D1420F072AF5D1012200E0FF22C80F57
:102D700000028018C00570478003000000210A008F
:102D8000002104E000210A00C11704E00022002312
:102D900006E0C0460022CB1758405940C01A99415E
:102DA00030B5184CA21A002903D1010010D0002020
:102DB000203A4C1512D104D2013A001849414C0D69
:102DC000FAD3114CA24204D212058918DB07C918A4
:102DD00030BDD243520D00200021F5E703D4013A63
:102DE00000184941FBD50B324405C00A4D05284364
:102DF000C90A640003D0002460416141E1E7E0D3E7
:102E00004408F8E732040000FE0700000A0DCC0F6A
:102E1000531E1B05C91A520503D3C943404200D3B0
:102E20000131520D03D0531CDB0A07D0121B0020C6
:102E30006400611C89078912803A1203014BD21A7F
:102E400070470000FF03000051434343C9188C46FC
:102E5000110C83B24B4310B4040C614392B280B2A4
:102E6000504362431C041B0C001910BC594113044D
:102E7000120CC01851416144704700004840414065
:102E800048400E4B5B6818470C4B1B6818470C4AB0
:102E9000936F9B0802D2094BDB681847F0B5146E9C
:102EA000556E576F166FFFF7F6FF054A14665566A5
:102EB00057671667F0BD014B9B681847F85B012008
:102EC000000000D007B548404140484001E0C046FE
:102ED00007B54200120E03D0FF2A03D1420218D8D0
:102EE000C00DC0054A00120E03D0FF2A03D14A02CA
:102EF0000FD8C90DC9050122414005D4414001D573
:102F0000814207BD884207BD0143491801D0C04333
:102F1000001807BD00B5FFF7DBFF804100BDC046CC
:102F200000B5FFF7D5FF01D9002000BD012000BD8D
:102F300000B5FFF7C7FF01D9002000BD012000BD8B
:102F400000B5FFF7BFFF804100BD0000C10FC907FA
:102F500000D54042002817D0F44603B40B4B1B6841
:102F6000984706BC81409E384042803107D20B060C
:102F700007D04900490AC0051043084360470130A3
:102F8000F8E7490A8902F5E770470000F469012073
:102F900041000A0E80231B067E2A0BDD9E3A0BDAC7
:102FA000C1174002400818435242D0404900013145
:102FB0004843704700207047C00FC0180138704761
:102FC000C0420DD300B540004008002100F012F8C7
:102FD000002801D4404200BD8020000600BD000052
:102FE000034BDB69FC4618471CDF41310010000031
:102FF000F85B0120014B5B6A18470000F85B012079
:10300000034BDB6FFC4618477CDF59310010000092
:10301000F85B0120014BDB6C18470000F85B0120D6
:10302000014B1B6D18470000F85B0120132310B5FE
:1030300012481C78FEF7D0FD0100012C0AD003DDF8
:1030400080220F4800F0AEF80E48FEF7BDFD0E4B93
:10305000186010BD0A4C5422200000F0A3F80B4B5E
:103060006365A365E36523666366A366E36623671A
:103070006367A367E3672362E361E5E75346000004
:10308000F85B01204C330000F46901201531001079
:1030900043001B0E7F3B5A1C0DDB5A1C0ED0172B16
:1030A00008DA1622D21A01239340181802239340FB
:1030B0005B4218407047C00FC007FBE7C00FC30753
:1030C000FE2080051843F5E7430070B51B0E822BE8
:1030D00004D9002819DBFE20800515E0002B02D062
:1030E00080231B04C018FFF795FFFE218905041CEF
:1030F000FFF7C7FEFE21051C8905201CFFF7C4FE53
:10310000011C281CFFF7C3FE70BD0148FCE7C04648
:10311000000080BF07B5604601880A0A0230DF2A36
:10312000FAD1C9B2820804D302884088000410434F
:1031300000E00068014A5050039007BDF85B012091
:103140000021C2158032803201D0024A104700208F
:1031500070470000CD2A0000C30FDB0741000A0EB4
:1031600007D0FF2A08D00909054A891819434007E2
:1031700070471900002070470249C918FAE700009B
:10318000000000380000F07F01480421014B18477F
:1031900020120020E91B0010014B1B68184700009B
:1031A00020120020014B5B6818470000201200200D
:1031B00010B5002800D110BD00F0B0FAFBE7C04602
:1031C0000FB430B50C4985B008AA08CA0D6803923F
:1031D000002D0CD000920122084C5242200002A97E
:1031E000A847012005B030BC08BC04B0184718003F
:1031F00000F0DEFA0020F5E7C8690120B1310010C7
:1032000010B5094A0300146884B0002C08D00122CC
:1032100000910648524203A9A047012004B010BD06
:1032200000F0C6FA0020F9E7C8690120B1310010AA
:1032300000BEFDE77047C046094A03001068002839
:1032400005D00849C3188B4207D813607047064859
:103250000449C31810608B42F7D901204042F5E7BA
:10326000C465012000000420206A0120002070476E
:10327000012040427047C046030010B5080011000D
:10328000002B05D1044B1A685B6800F03FF910BDB4
:1032900001204042FBE7C046289D01100300013B8E
:1032A00010B508001400012B06D8012300222100CC
:1032B00000F0AEF8200010BD01204042FBE7C04600
:1032C000012040427047C046012040427047C0463E
:1032D000012040427047C0460300022200209A426B
:1032E0004041704710B5FFF7A3FFC04630B50D0051
:1032F00083B01900002A0BD0074B084C01920093B1
:1033000002002B002000FFF75BFF0120FFF790FF7A
:10331000034B1A00F1E7C0468C4101109C4101109B
:10332000244F011070B5FEF7AFFC074D074EB542B4
:1033300009D20024013E761BB60808CD9847230029
:103340000134B342F9D170BD104001101840011092
:10335000030010B5080011001B68984710BDC04657
:10336000F0B5C64600B5437D07000C001600002BE3
:1033700046D0002A17DD0B780A2B24D0002398466C
:10338000012E13D001252900635C01350A2B26D0BC
:10339000B542F8D1464509DCA419013C23780D3B20
:1033A0005A4253413B7580BCB846F0BD4346E018D5
:1033B000A419F11A013C3B68984723780D3B5A4207
:1033C00053413B75EFE7037D002BD7D102210F4816
:1033D0003B689847012EDFD001239846D2E7631E51
:1033E0005B5C0D2BD4D0884504DA4346C91AE0183B
:1033F0003B689847022105483B68A8469847C7E7BD
:103400000368110020009847CDE7C046849D011055
:10341000F0B54546DE464E465746E0B583B0914688
:103420001C0080460D00FEF7F5F90023304A121803
:103430004B41002B02DA01222E4B52422E4908004A
:103440008A4610F08DFD07006B1C03D140460BF03F
:10345000F5F80500002C27D0284E294B1C68002CBD
:1034600018D04B46002B21D1264B994602E0246907
:10347000002C0FD02368002BF9D04B461B68002B83
:1034800001D09C42F3D120002A004146B047246974
:10349000002CEFD1002F26D1280003B0F0BCBB4692
:1034A000B246A946A046F0BD174ED6E7154B994641
:1034B0000A239B4602E02469002CEBD02368002BF2
:1034C000F9D04B461B68002B01D0A342F3D12A0050
:1034D00041462000B0476B465A462000DA71D91D9C
:1034E0000122B047E7E7504610F002FDD4E7C0469E
:1034F00040420F00FFFFFF7F2019002061330010C2
:10350000B8650120C065012051330010F8B5574659
:103510004E464546DE4698461A4BE0B59B461A4B4A
:1035200007000E0091469A46184D5B461C68002C19
:1035300003D115E02469002C12D02B68002B01D098
:10354000A342F7D1A368002BF4D03100380098478C
:103550000028EFDDF0BCBB46B246A946A046F8BD48
:1035600053465B6A984508D85246926A4A4502D348
:1035700002204042EEE79845FAD101200021FEF7F3
:1035800053F9D2E7B865012000400540C06501202D
:10359000F0B5CE46474680B583B06B460600DD1DCC
:1035A0002870FEF737F90023194A12184B41002BF7
:1035B00002DA0122174B524217490800884610F0E0
:1035C000CFFC164B81461C68002C14D0144F02E02F
:1035D0002469002C0FD02368002BF9D03B68002B06
:1035E00001D09C42F4D1200001222900FFF7B0FE57
:1035F0002469002CEFD14B46002B05D1300003B0DD
:10360000C0BCB946B046F0BD404610F071FCF5E7CD
:1036100040420F00FFFFFF7F20190020B865012006
:10362000C06501200A4A1368002B05D10CE01A007E
:103630001B691032002B07D08342F8D1002902D138
:1036400018691060196170470029FCD01060FAE712
:10365000B8650120084B10B51C68002C06D06368C3
:10366000002B04D098472469002CF8D110BD2469A0
:10367000002CF4D1FAE7C046B865012010B500F07F
:1036800049FA10BDF0B5CE464746040080B583B078
:10369000FEF7C0F82600002736184F41002F02DA47
:1036A00001261A4F76421A4B1A4D994601AB98469D
:1036B0004B461C68002C03D116E02469002C13D063
:1036C0002B68002B01D09C42F7D1A368002BF4D0CB
:1036D0000121404698470028EFDD4346187803B0A3
:1036E000C0BCB946B046F0BD0B4B5A6A974207D8EA
:1036F0009B6AB34202D302204042F0E79742FAD1DC
:1037000001200021FEF790F8D2E7C046FFFFFF7FBF
:10371000B8650120C065012000400540F0B5CE46E7
:10372000474680B583B06B460600DD1D2870FEF766
:1037300071F80023194A12184B41002B02DA0122BA
:10374000174B524217490800884610F009FC164BE7
:1037500081461C68002C14D0144F02E02469002C10
:103760000FD02368002BF9D03B68002B01D09C427E
:10377000F4D1200001222900FFF7F2FD2469002C7A
:10378000EFD14B46002B05D1300003B0C0BCB94689
:10379000B046F0BD404610F0ABFBF5E740420F00ED
:1037A000FFFFFF7F20190020B8650120C0650120C0
:1037B00070B504000AF042FF012301000500012258
:1037C0002000FFF725FE084B1C68002C06D063681C
:1037D000002B05D098472469002CF8D1280070BD33
:1037E0002469002CF3D1F9E7B8650120024B186079
:1037F000024B19607047C04654650120586501208E
:1038000010B5024B1878FDF74DFA10BD1B6A012068
:10381000154B70B51A68002A22D0EFF3108172B6EA
:1038200010680028FCD0BFF35F8F00200F4A59605A
:1038300010701B68BFF35F8F186081F3108800243D
:1038400000250B4E3078FDF721FA002804D1002422
:1038500000252900200070BD3078FDF723FAF8E735
:10386000FA240025A400ECE7D46901201C6A012099
:103870001B6A012070B5040000200E0001F06CFBF3
:10388000002834D0002001F07DFB00282FD0FDF768
:10389000C1FF0023174A12184B41002B16DB164DAF
:1038A000280010F05DFB002821D0002001F054FB1F
:1038B00000280FD101200021404200F077FD0324B1
:1038C0006442280010F014FB200070BD01220B4B55
:1038D0005242E4E7002001F055FB0028EAD0210025
:1038E0003200002001F058FB041EEAD1E7E7032470
:1038F0006442E9E740420F00FC690120FFFFFF7FBF
:1039000010B5FDF787FF00230D4A12184B41002B1D
:1039100002DA01220B4B52420B4C200010F020FB2C
:1039200000280CD001200021404200F03FFD002083
:1039300001F076FB0028F5D1200010F0D9FA10BD77
:1039400040420F00FFFFFF7FFC690120F8B5DE4613
:10395000574680B505000C00FDF75CFF0023364A92
:1039600012184B41002B02DA0122344B52423449E7
:1039700008008A4610F0F4FA002803D1C0BCBB4608
:10398000B246F8BD002001F0E7FA00284AD0002630
:10399000002C43DD2B4B9B4614E0A919002001F0BD
:1039A00079FB070001200021404200F0FFFC0020CD
:1039B00001F036FBFDF72EFF224BF6191860596017
:1039C000B4422BDD002001F085FBA71B0200B842AA
:1039D00000DD3A00002AE0D101200021404200F041
:1039E000E5FC002001F01CFB002001F0B5FA0028E6
:1039F00014D0002001F06EFB0028E1D1FDF70AFF92
:103A00005B460F001A685B68002184460E48121856
:103A10004B419F4202D8D3D19445D1D9504610F0A2
:103A200067FAABE700200021064B1860596050464A
:103A300010F05EFAA2E7C04640420F00FFFFFF7F92
:103A4000FC690120F05A012020A1070030B52A4C62
:103A500085B00021200010F073FA00281CD1274BFC
:103A60001A68002A16D0EFF3108172B61068002889
:103A7000FCD0BFF35F8F01242148596002781B6896
:103A8000D2B20470BFF35F8F0020186081F31088FA
:103A9000002A17D005B030BD01200021404200F0BF
:103AA00085FC002001F06EFA0500200010F020FADD
:103AB000002DEFD0134B1B68002BEBD0124A10687F
:103AC0009847E7E7FDF7F6FC0400FDF7A3FEFA22AE
:103AD0000023920012184B41002B02DA01220B4BFB
:103AE00052420121029100210191094920000091D7
:103AF000FDF7E4FCCEE7C046FC690120D469012053
:103B00001C6A01205465012058650120FFFFFF7FDA
:103B100011380010D02310B51B0684B01C68FDF7C7
:103B2000C9FCFDF7C5FDA04202D0002004B010BDC5
:103B3000294B002100201B7801F092FC27480368E4
:103B4000002B45D00120FDF743FAFF23244C2549E3
:103B500020701840FDF7C0F820780121FDF784F8A7
:103B60000520FDF7A7F8002824D1082200211E48CF
:103B7000FFF712FBFDF79EFC0400FDF74BFEFA2257
:103B80000023920012184B41002B02DA0122174B3E
:103B9000524201210291002101911549200000911A
:103BA000FDF78CFC0028C0DB12480121FFF73AFD2D
:103BB0000120BBE70120FDF725F80B4B01001800A1
:103BC000FDF768FA002205200B49FDF7AFF8EBE797
:103BD000FDF744FAB6E7C046C0AD0110FC6901200C
:103BE0001B6A01204D3A0010D4690120FFFFFF7FBE
:103BF00011380010301200200138001000487047C2
:103C0000009E011000487047AC9D011010B50400E3
:103C100017480378002B20D0002C06D1154B1648EE
:103C20004380063BFF3B038010BD052C1DD8134B82
:103C3000A400E05812490123013804E001330A804E
:103C40000231142B0DD0C25C002AF7D1C022DBB2A6
:103C50005B00920008481343E5E7112100F01AF8D1
:103C6000DAE7CA2304489B00DDE70020DCE7C04612
:103C7000046A01200904000090650120949D011050
:103C80009265012010B5024800F0D8F810BDC0467A
:103C9000EC69012030B54B1E012900D1A7E0664A2E
:103CA00011780D092C0030349F2900D9A2E004704E
:103CB000012B00D1BEE00F21147821400C003034DC
:103CC000092900D998E04470022B00D1B2E0547861
:103CD0002509290030319F2C00D990E08170032BF9
:103CE00000D1A7E00F2121400C003034092900D970
:103CF00087E0C470042B00D19CE09478250929004A
:103D000030319F2C00D97FE00171052B00D191E06B
:103D10000F2121400C003034092900D976E044718C
:103D2000062B00D186E0D4782509290030319F2C5C
:103D300000D96EE08171072B00D17BE00F2121407B
:103D40000C003034092966D8C471082B00D171E009
:103D500014792509290030319F2C5FD80172092B75
:103D600068D00F2121400C003034092958D8447202
:103D70000A2B5FD054792509290030319F2C52D865
:103D800081720B2B56D00F2121400C0030340929B1
:103D90004BD8C4720C2B4DD09479250929003031B1
:103DA0009F2C00D9073101730D2B43D00F212140E7
:103DB0000C003034092901D937310C0044730E2B23
:103DC00038D0D1790C09220030329F2900D907322E
:103DD00082730F2B2ED00F220A4011003731092A8F
:103DE00001D830321100C173102B23D010300023C2
:103DF000037030BD07345AE737310C0063E70731F1
:103E00006CE737310C0074E707317DE737310C0080
:103E100085E707318EE737310C0095E707319DE7DD
:103E200037310C00A3E70731AAE737310C00C47221
:103E30000C2BB1D1C018DAE7EC69012010B588B0BD
:103E400004000D2200216846FFF7A6F90D2200218B
:103E500004A8FFF7A1F96A464B236846137004A92A
:103E600000230D2210F084F8152108222000694457
:103E7000FFF798F908B010BD7047C0460022014B0B
:103E80001A7070471A6A01204B790020FF2B0BD162
:103E90008B79002B08D1CB79012B05D1082A03D9C6
:103EA000024B8A7809301A707047C0461A6A01209E
:103EB0000120704710B5012913D1154953791079A4
:103EC00009781B0203430020994200D010BD5378AB
:103ED000012B08D0022BF9D1642200210020FDF72C
:103EE0001DFE0120F2E7D17893780902194380235F
:103EF0000A005B001A40194206D00A06D20F480A8F
:103F000003231940FDF792FE01204042F8E7C04626
:103F10001A6A012000487047BC9E011070B5050068
:103F200014000120012909D153780020012B05D16B
:103F3000637912791B021343072B00D070BD210057
:103F40002800024A9F3300F0E9FEF7E7149E0110B3
:103F50000123037000487047E09E01104B780A78F7
:103F60001B0213438A7810B512041A43CB781B0640
:103F700013439622D200934200D010BD00220120AC
:103F800011004042FDF752FEF8B500F039F90C235C
:103F9000194DFF22AB6705201849FCF7C7FE184CE6
:103FA000402200212000FFF7F7F8402700230126D8
:103FB0002121144A66702783A260136063545F3125
:103FC000618445396354104A10496360E260278771
:103FD000A1620B606362E2620FF092FF80239B0597
:103FE0002E64EB6490230A4A0120EA508022094B98
:103FF0005202DA64F8BDC04600001150FD040020F2
:10400000C86501208400105000011050800010503D
:1040100010D001000020115010B501210520FCF73F
:1040200023FE10BD10B500220021024800F008F95F
:1040300010BDC046E8650120044B1970002904D06A
:1040400080219023024A8902D1507047166A0120CC
:10405000002011500B785B0602D14B78052B00D065
:1040600070478A78014B1A60FAE7C0460000115089
:10407000F0B5C646CB7800B59B079C0F2000012CFD
:1040800056D08D780A794B797F211B022940EE09A1
:1040900013434A0094462C4F92195201BA18957056
:1040A00001257540557000255B055B0DD5701383A8
:1040B000D476CA00012E2BD0244CA0468C01424459
:1040C0003C19A260156000292BD0214AC9009046F6
:1040D000414461603F223F339343022830D0320095
:1040E0001C4C624421685201BF181B4ACB18F9606E
:1040F0002360934226D8194A83064A4013438022FC
:10410000120613437A681360012080BCB846F0BDE4
:10411000134CA0468C0142443C19A2621560002950
:1041200008D100237601BE1973600E4BF360EBE7F4
:104130000020EAE7094AC900904641446162C9E7A4
:104140005B00CCE7FDF79AFDC865012084001050A4
:1041500004001050D0690120FF0F105000001050D3
:10416000800010500001105010B50FF0C9FE10BDB6
:1041700010B57F200C0020404000E4091100001918
:104180001A00034B4001C01800F05AF8012010BD7E
:10419000C86501207F23180000B5084083B00B429A
:1041A00004D14B424B41084A013393668022C9092E
:1041B0004000064B401840010021C01812010FF0CA
:1041C000B7FE03B000BDC04600201150C8650120F5
:1041D0007F22130010B50B400A4200D110BDC9095F
:1041E0005B005B1804485B01C018002300220349F0
:1041F000C3700FF09DFEF1E7C8650120FFF7FFFFD8
:1042000080220A4B520410B51A60094B09491A6002
:1042100010000B689843FBD1802200215201064810
:10422000FEF7BAFF0922054B5A6710BD00E00040B7
:1042300000F0004008C00040000010500000115085
:10424000002310B5C38201338282837601610400AA
:104250000FF066FE002804D080219023074A8902CF
:10426000D15020000FF03CFE002802D0012323771C
:1042700010BD20000FF08CFEFAE7C0460020115060
:104280007047C0467047C046002070470020704706
:104290007047C0467047C0467047C0467047C0462A
:1042A000024B5878431E9841C0B2704738630120D2
:1042B000024B18784007C00F7047C0463863012092
:1042C000F0B5D6464F464646C0B52D4B07009A4638
:1042D0001B780E00FF2B4DD100293ED00021542227
:1042E0002848FEF759FF0022274C284B20001A705F
:1042F000FCF7B4FE264B1C60264C2000143CFCF757
:10430000BBFE200001F0A8FB234B244D1C60244B76
:10431000002B04D02800FFF71BFE224B1860224A16
:10432000002491461F4A2B7890460EE043461B68B6
:1043300062019B18002B10D05B68002B0DD09847B2
:1043400001342B78E4B2A34209D3A342EED8E31A96
:104350005B014B445B68002BF1D100200BE053461E
:10436000310038001F70FFF70FFE0028F5D038002D
:10437000FFF752FE0120E0BCBA46B146A846F0BDA8
:10438000641200203863012030630120176A012085
:104390008C6301205C12002090630120156A0120CB
:1043A000513F001088610120A89F0110F0B5DE4642
:1043B00057464E464546E0B5C94B91B003931B782E
:1043C000FF2B00D145E1C74BC74E9B465F46C74B0D
:1043D0000DAC0293C64B019335686A69EFF3108107
:1043E00072B61368002BFCD0BFF35F8FA961280061
:1043F000210001F061F96A69AB69BFF35F8F0021A9
:10440000116083F31088002800D122E16378082B23
:10441000E2D89B00FB589F466368002BDCD0A06865
:104420009847D9E77F222179B04D0A405300EB1815
:104430009846C809804440460123303005799D43A1
:104440000571057903339D430571002A00D107E109
:104450004346A84A1B7D1278934200D3F7E0A64A50
:104460005B011568ED18002D00D1F2E0A3686279B8
:104470002078AD69A847AFE7A04A1378002B00D198
:10448000E7E01378013BDBB213701378002BA3D164
:104490000122964D01212B78042013432B703423E5
:1044A000EA5C8A43EA54EA5C8243EA540133EA5CF8
:1044B0008A43EA54EA5C8243EA54237800209B460C
:1044C00000F08AFC602223791A40602A00D1F2E0D1
:1044D000402A00D1F8E0DB06DB0E012B00D115E10C
:1044E000022B00D1CBE0002B00D0E4E0202A00D149
:1044F0000FE2002A00D0DEE06379092B00D9DAE070
:104500007F4A9B00D3589F46784D2B78DB0700D419
:1045100062E7FFF7C3FE5FE7029BDB78DB0700D4AF
:104520005AE76068FFF7AEFE56E7704D2B78DB0761
:1045300000D451E728780007C00FFFF7ADFE4BE726
:1045400023786B4A994693466A4B6B4A9846924643
:104550003A00002547461B78B0464E4691460EE08D
:1045600053461B686A019B18002B00D17EE0DB6874
:104570003000984701353B78EDB2AB420CD3AB42EB
:10458000EED8EB1A5B015B44DB68300098470135DD
:104590003B78EDB2AB42F2D2544D542200212800B8
:1045A000FEF7FAFD1022FF21281DFEF7F5FD280079
:1045B0002022FF21143046464F46FEF7EDFD00F065
:1045C00001FC2379AB7007E723784B4A9946494BA6
:1045D000924698463200BB464E46002547469146D5
:1045E0001B780DE053461B686A019B18002B41D0D5
:1045F000DB683000984701353B78EDB2AB420ED313
:104600009D42EFD3019AEB1A94465B016344DB6849
:104610003000984701353B78EDB2AB42F0D2029DB5
:10462000542200212800FEF7B7FD1022FF21354853
:10463000FEF7B2FD28002022FF2114304E465F46CF
:10464000FEF7AAFD00F0BEFBFFF724FEC4E693428E
:1046500013D011B0F0BCBB46B246A946A046F0BD8F
:10466000A3686279207800F0CBFBB5E646464F465A
:104670001E4DA4E74E465F46E4E71D4DF6E6702367
:10468000217A0B4217D1C80982460F330B405B00D9
:1046900098461848EB1853441B7D0078834260D23B
:1046A00015485B01006881469944002A00D14FE11A
:1046B0004B46002B5DD120780021FFF76BFD802158
:1046C0002078FFF767FD87E60F4800F085FB0121A2
:1046D00058460EAAFFF722FC002800D07CE6EAE745
:1046E00064120020009F01109063012038630120B4
:1046F000A89F0110156A012088610120176A012016
:10470000249F01103C6301201D3F0010237A0F2BD2
:10471000D1D8D64AEB181B791278934234D3CAD138
:10472000D34D686900F058FB012158466B690EAA09
:104730009847002800D04FE66022150023791D40DD
:104740001A42B8D163790A3B012BB4D800F044FB7C
:1047500063790A2B00D17FE158460EA900F0C8FA10
:104760003AE6834200D0EEE0C14B9946002A00D1E0
:10477000EEE04B46586900F02FFB4B4601215846AE
:104780005B690EAA9847A7E7BA4A5B011568ED185E
:10479000002DC6D18FE7A37999466B789945DBD078
:1047A0006B78002B00D02AE14B466B70002B00D1B8
:1047B00022E148460138C0B2FFF724FA002800D1B0
:1047C00074E143780793022B00D06FE10122C17995
:1047D000B1468B11491113400A40302112015B018F
:1047E00013432A78A8468A4313432B7009239A4619
:1047F00082445646BA46C37882781B021343C318D4
:1048000005939A4B04939A4B08939A4B09939A4BAE
:104810000A93059BB34200D84BE1737801220B2B1E
:1048200003D13378F278F6187378042B00D03AE18C
:10483000059B00279B1B9BB20693049B0B921D7844
:1048400019E0099A7B011568ED18002D00D12AE1C5
:10485000310058462B69069A98478446082803D9A0
:10486000069A824200D30BE1049B01371D78FFB208
:10487000BD4200D217E1BD42E3D8089B7D1B9C4698
:104880006D016544E4E76B780CAA02321370584658
:1048900001230EA900F042FA9EE5E3881A0AD8B275
:1048A0000F2A00D907E775499300CB589F460EA8F9
:1048B00000F098FA5846A179FFF7B4FB02222B7852
:1048C00013432B7088E5E388012B00D0F3E6082220
:1048D0002B78584693430EA92B7000F009FA7BE51C
:1048E000022029780CAB9A1C8B068908DB0F01404B
:1048F0000B431380584602230EA900F00FFA6BE514
:10490000E388012B00D0D6E608222B7813432B70C6
:1049100022E7237A0F2B00D9CDE6544AEB181B79F6
:104920001278934228D2534A5B011568ED18002D86
:1049300000D1C0E6686900F04FFA012158466B6962
:104940000EAA9847C8E6002A00D0B4E6002399468C
:1049500062790220130004928343012B11D0002AB4
:1049600000D0A8E62B004344534430331B790CAAF3
:104970009B07DB0F0232BCE7934200D09BE63C4D25
:10498000D8E7E388002B12D1039B1878049B012BF6
:1049900023D0FFF7FFFB43460221EB18534430338B
:1049A0001A790A4301211A711A790A431A714B467E
:1049B000002B00D110E5586900F00EFA4B4601219A
:1049C0005B690EAA58469847002000F005FA352387
:1049D000EB5CDB0700D5FFE4BEE6FFF7F9FB4346DF
:1049E0000221EB18534430331A798A431A711A7929
:1049F00004998A431A71DAE7FFF74CFCACE6002110
:104A00005846FFF719FB5846FFF7AEFB00229246C7
:104A1000174AAB780592174A049306922A00134B63
:104A20005546984692461B780EE0069B6A011B6825
:104A30009B18002B56D0DB685846984743460135F3
:104A40001B78EDB2AB4239D3AB42EED8059AEB1AE4
:104A500094465B016344EEE70CAB9A1C5846012375
:104A60000EA9157000F05AF9B6E4C046156A012087
:104A7000A89F0110886101204C6301204C9F011008
:104A80000B9A012A4DD0002A3CD00023B07804E0D4
:104A90000133DBB20F71934234D2C118C9B2414421
:104AA0000D79FF2DF4D04E464546574600236B70D6
:104AB00001E64E465746FFF7EBFB4DE655465422BE
:104AC00000212800FEF768FB1022FF21281DFEF7B9
:104AD00063FB28002022FF211430FEF75DFB049BBE
:104AE000AB7061E65546FAE7FFF714FA021E00D1F3
:104AF000E1E5D37891781B020B4358460EA900F0EC
:104B00000DF9E9E565463B0031002A000A9800F0FE
:104B10004FFDAC46049B66441B78BB4200D378E64D
:104B2000C1E7174B29699942AFD1079AADE7FFF763
:104B3000ABFB021E00D1BEE5584613780EA900F06B
:104B4000EDF8C9E52189FFF761F8021EF4D1B2E55D
:104B5000022A0FD0FFF79AFB021ECAD1ABE5FFF77E
:104B60004DF8021E00D1A6E5122358460EA900F00A
:104B7000D5F8B1E5FFF746F8021EBAD19BE5C0466D
:104B8000D5510010F8B557464E46DE4645460C0056
:104B9000E0B516001F00002A3CD0702398461E4B3B
:104BA00000259B461D4B9A461AE05B461B78200069
:104BB00099465346997800F0BDFC00281CD021008E
:104BC0004846FFF755FA002816D0A378DA09012ADB
:104BD00019D00A9A013513702378E418B54219DA0E
:104BE0006378052B08D1E3789B079B0FBB4203D169
:104BF0004246A3781A42D8D00020F0BCBB46B24649
:104C0000A946A046F8BD0B9A013513702378E41825
:104C1000B542E5DB0120F0E7641200203863012093
:104C2000702270B58B780C001A4201D0002070BD44
:104C3000064B20001D78064B997800F07BFC00287D
:104C4000F4D021002800FFF713FAF0E764120020E7
:104C5000386301200B007F2010B51840DB09343386
:104C60004000044AC018044B1168C01800F01EFC34
:104C700010BDC0468C630120386301200B007F20EB
:104C800010B51840DB0934334000044AC018044B07
:104C90001168C01800F032FC10BDC0468C630120C2
:104CA0003863012070B57F240F480C40640004195C
:104CB000CD09641930342079C00701D5002070BDBA
:104CC000012625790948354300782571FFF750FA08
:104CD0000028F4D1012223799343237123790332ED
:104CE00093432371EAE7C046386301206412002031
:104CF00070B5094C0600082220000D00FEF752FA9C
:104D000000238021E360A3602B78300099430022C8
:104D10000023FFF7C7FF70BD18630120F8B5CE462A
:104D200047469046254E80B58146082230000D004A
:104D30001F00FEF737FA4346B3600023F381EC7996
:104D4000AB7924021C43231CBC4200D93B1C9FB2FC
:104D5000B381002C0DD0002F17D04246002A2BD053
:104D6000402F1BD89FB233787F2B1CD80021144AC8
:104D70000FE080212B780022994348460023FFF75B
:104D800091FFC0BCB946B046F8BD7F230022317800
:104D900099433B004846FFF785FFF2E740239FB267
:104DA00033787F2BE2D9064C3A0041462000FEF7CB
:104DB000F9F980212200ECE70020E2E718630120E6
:104DC000D862012010B5142200210248FEF7E4F950
:104DD00010BDC04618630120014B18617047C046E2
:104DE0001863012010B5054C010008222000FEF7D1
:104DF000D9F90023A360E36010BDC0461863012009
:104E000070B5384C1D0023780600DA09C9098A42BA
:104E100010D00020002D00D070BD21003000FFF721
:104E200019F92369002B03D0220003213000984791
:104E30000120F1E77F2B06D8A068002834D02A0093
:104E40002949FEF7AFF9E289A1685219E38892B2C5
:104E50004919E281A160934214D03F2D12D9A38950
:104E6000981A051C80B240282AD82078ADB27F2835
:104E700028D800219A4232D01B4A2B003000FFF77D
:104E800011FFC9E72369002B05D022000221300061
:104E9000984700280AD080212378002299433000C7
:104EA0000023FFF7FFFEB7E70020B5E70021300041
:104EB000FFF770F930008021FFF76CF90120ABE7B4
:104EC0004025D2E79A4207D0074C2A002000FEF77F
:104ED00069F980212200D0E780210022CDE700225D
:104EE000CBE7C04618630120D862012070B50400EA
:104EF000FFF7D6F9002800D170BDFFF7D9F90028D7
:104F0000FAD1C8236343124DEE18F1780029F3D08B
:104F100010335D19280000F0B9FB3F28ECD90020C0
:104F2000F178FFF797FE0028E6D0280000F0AEFBEE
:104F3000F1783F2807D9074BE201D218002040231F
:104F4000FFF7B0FED8E70020FFF798FED4E7C04691
:104F5000106201208C61012010B50400FFF7A0F958
:104F6000002801D1002010BDFFF7A2F90028F9D1D7
:104F7000C8226243024B01309B181B791840F2E7AC
:104F800010620120C82310B543430248181800F0EE
:104F90005FFB10BD20620120F8B5C8248023444384
:104FA0001C4F103405003C195B029A4200D31A4A88
:104FB000200092B200F0CEFB0600FFF771F9002846
:104FC00001D13000F8BDFFF773F90028F9D1C823EB
:104FD0006B43FF18FB78002BF3D0200000F056FB4A
:104FE0003F28EED90020F978FFF734FE0028E8D0FA
:104FF000200000F04BFBF9783F2807D9074BEA0166
:10500000D21800204023FFF74DFEDAE70020FFF71B
:1050100035FED6E710620120FFFF00008C61012001
:10502000F8B50400FFF73CF9002801D10020F8BDD5
:10503000FFF73EF90028F9D1C82565432E00134F2C
:105040002436F619300000F003FB0028EED07F195B
:105050000020B978FFF7FEFD0028E7D00C4DE401F1
:10506000651929004022300000F074FBB978041E55
:1050700008D003002A000020FFF714FE0028D5D036
:105080002000D4E70020FFF7F9FDCFE710620120F0
:10509000CC61012070B5C82444430C4B0500E418D2
:1050A00080235B029A4200D3094A200092B200F0AA
:1050B00017FC0600200000F0CBFA3F2801D8300092
:1050C00070BD2800FFF7ACFFF9E7C046346201204D
:1050D000FFFF0000C82310B543430248181800F032
:1050E000D5FA10BD34620120F0B50025184C83B00C
:1050F000C82200212000FEF74FF8164B21001D703A
:10510000FF236371E1235B02A36020000823402298
:10511000A37338310095073B103000F063FA270085
:105120000123210020002600402278310093B83767
:10513000243000F057FAC0363800FBF78FFF3000FC
:10514000FBF78CFFE56127622663656303B0F0BD62
:10515000106201200C6201200A4A116B136A0029B7
:105160000CD0002B07D00023D361536313630023BB
:1051700013620120704753631363FAE7002BF8D0E2
:10518000D161F4E71062012070B50F4C05220021B7
:105190002000FEF701F80D4D2B78DA0707D50C4CEF
:1051A0009B070CD50121200000F076FC70BD20008B
:1051B000103000F051FC2B78054C9B07F2D42000F6
:1051C00000F04AFCEEE7C046106201200C620120AC
:1051D00034620120F0B54B79060083B0022B02D176
:1051E0008B79022B03D00025280003B0F0BD204F9F
:1051F000BB78002BF7D18B7809253B700C780C1904
:105200006378242B07D00CE02378E4185D196378C9
:10521000ADB2242B05D19542F6D90020FFF766FEEA
:10522000E2E71A00052B15D0042AF6D163790A2B80
:10523000F3D1104B27780193013300933000022300
:10524000E119023AFFF79EFC0028CCD00E35ED198B
:10525000ADB2E2E721003000FFF7E2FC0028C2D047
:10526000A3787B7023785D19E4186278ADB2DBE730
:105270001062012012620120F8B560231400127838
:10528000050013400020202B07D1304A637927798D
:1052900016781B023B439E4200D0F8BD6378222B58
:1052A0001AD007D8202B34D0212BF6D101293ED09B
:1052B0000120F2E7232BF0D1012940D00329F7D1B7
:1052C000234B002BF4D0E178A37809020020194386
:1052D00000E000BF0120E0E7012930D00329E7D139
:1052E00001252E00A378E478023924021C431471AE
:1052F000264024321000714000F0CEFB154B002BED
:10530000D6D06208002031002A4000E000BF012012
:10531000C3E701290BD00329CAD10F4B002BC7D0FB
:10532000083200201100FEF719FE0120B5E707231F
:1053300021002800094AFFF7F1FC0120ADE7210018
:105340002800FFF7D5FC0120A7E7C0461062012026
:1053500000000000000000005D3F00101862012006
:10536000F0B54F464646D646C0B5364D8046EA783B
:105370000C001F008A423CD0AB788B4210D000203A
:10538000E0BCBA46B146A846F0BD2F4B002B04D076
:105390002E4800F073F9002851D00020FFF7A6FD39
:1053A000AB78A34201D00120EAE7294B002B02D0C1
:1053B000002000E000BF0020FFF732FE0028F2D1FD
:1053C000244C200000F044F90028ECD1002FEAD052
:1053D000BF06E8D1243C4046A178FFF73BFC0028FB
:1053E000E1D0002300224046A178FFF75BFC0120BA
:1053F000C6E79AB210239A46174EAA443100504687
:1054000000F06EFA154B002BBFD06B79FF2BBCD090
:10541000002FBAD0F219914603E001364E45B4D0C0
:105420006B7932789A42F8D1504600F027F900287B
:10543000F3D15346103B597900E000BFEDE700E09F
:1054400000BFAAE7106201200000000020620120D6
:1054500000000000346201208C6101200000000087
:1054600000B5030083B0002910D00020012B07D81D
:105470000A78002A04D00C48C2540120012A01D025
:1054800003B000BD1800FEF71BFFF9E701236A46D1
:10549000002001A99380FEF713FF0028F0D001221D
:1054A000014B1A70ECE7C0462C630120037870B5FD
:1054B000DB0704000E00DD0F002B17D103785B071C
:1054C00001D5280070BD0121300049420EF020FDB9
:1054D0002378DB07DD0F002B0AD123785B0708D484
:1054E0000422237801251343237002E00025E8E716
:1054F000002530000EF0FCFCE3E7C04670B50C0060
:1055000001210600494220000EF002FD33785B07BE
:10551000DD0F002B04DB20000EF0EAFC280070BD3C
:105520003378DB0704D40422337893433370F2E7F3
:105530000025F0E7437902791B021343C2785B052B
:1055400092075B0D920F022A1DD0032A0CD0002077
:10555000012A08D102394A425141124A9446614413
:1055600099424041C0B2704702394A1E91410E4AE9
:10557000494211408022D200944600206144994261
:105580004041C0B2EFE7022905D0002040229A42F4
:105590004041C0B2E7E7054A981843425841C0B2BB
:1055A000E1E7C046FF03000040FCFFFF00FEFFFFF5
:1055B0008A1870B5914207D27F264C78052C04D00A
:1055C0000C7809198A42F8D870BD34008D782C40C7
:1055D00064000419ED0963550C7809198A42ECD866
:1055E000F2E7C046F0B5C64600B504006846057E41
:1055F0008020884617001E000002824226D8E068FC
:10560000002803D0012149420EF082FC20690028C5
:1056100003D0012149420EF07BFC43462360730412
:105620005B0CED031D430023E0686381A780E580E8
:105630002381002801D00EF05BFC2069002801D0F6
:105640000EF056FC012080BCB846F0BD0020FAE701
:1056500010B5048941898288A3B288B28C4207D3ED
:105660001B1A9BB2101C9A4200D9181C80B210BDA4
:105670005100091A5B189BB2F4E7C04603894089C0
:10568000181A43425841C0B27047C04610B5048949
:1056900041898288A3B288B28C4207D31B1A9BB27D
:1056A00000209A4201D9D21A90B210BD5100091AB5
:1056B0005B189BB2F4E7C04670B5040000690E00A9
:1056C000002803D0012149420EF022FC258960897F
:1056D000A288A9B283B2854232D3CD1AADB2002DD1
:1056E00028D0AA4208D291422FD3891A8BB2638163
:1056F0009A4203D89B1A9BB29A42FBD9E28821684E
:105700005204520C53433000C918FDF74BFD638916
:105710000125591C89B2A2888B420DD90021520063
:10572000891A89B220696181002801D00EF0E0FB5E
:10573000280070BD618989B252009142F2DBEFE727
:105740005500ED1A4D19ADB2C9E789188BB26381C6
:10575000CEE7C046F0B546464F46D646C0B5060031
:10576000006989469046002803D0012149420EF085
:10577000CFFB31897289B5888BB294B2914254D3F0
:105780001F1BBFB2002F4AD0BD4205D2AB4251D23F
:105790005B199CB22F0074814346B8453DD89FB237
:1057A000A54203D8641BA4B2A542FBD9F288316894
:1057B0005204520C904662432B1B9BB289184246FE
:1057C0009F4225D953439BB21A0048469A46FDF79B
:1057D000E9FC434648467D1B64195C4331685044EC
:1057E000A2B2FDF7DFFC7189B588CB199BB26A00C4
:1057F000994216D99B1A9BB230697381002801D057
:105800000EF076FB3800E0BCBA46B146A846F0BDC3
:1058100048467A43FDF7C6FCE5E73B1CBFE77389C2
:105820009BB26A009342E7DBE4E76F003F1BDF199E
:10583000BFB2A7E75B1B9CB2ACE7C046F8B504005B
:10584000C0680E00002803D0012149420EF060FB21
:10585000258920896189A288ADB283B28FB288423E
:1058600029D3DB1B9BB29A4209D8E779FF0906D1FD
:10587000E068002801D00EF03BFB3800F8BD2B009B
:1058800095421DD39B1A9BB29342FBD2E2882068BB
:105890005204520C53433100C018FDF783FC6B1CBB
:1058A0009BB2A2889D4217D9002352009B1A9BB23B
:1058B00001272381DCE75100C91B5B189BB2D2E7AB
:1058C000E28820685204520C53433100C018FDF79F
:1058D00069FC0135A288ABB252009342E8DBE5E7F0
:1058E000F0B54E465746DE464546E0B589460600C9
:1058F000170083B0002A67D0C068002803D00121B8
:1059000049420EF005FB3389F2799BB298467389C0
:10591000B5889BB2D20940D198455ED26A00D31AAD
:1059200043449BB2AB425DD2EB1A1A1C9BB2BB4202
:1059300000D93A1C97B27B1B9BB20193F3885B049E
:105940005B0C9A464346DB199BB29B464446A845EE
:1059500003D3641BA4B2AC42FBD25346634330680A
:105960002D1BADB2C018BD424BD3524649467A43B7
:10597000FDF718FCB3885B00D84501D89B4503DBD5
:105980005A46D31A9BB29B465B463D003381F06872
:1059900000281AD00EF0ACFA17E0F2885204520C2C
:1059A0009246AF4220D298454DD34246D21A92B287
:1059B0006900781B80B2D21901908A4233DA4346DB
:1059C000FB189BB29B46C1E70025280003B0F0BC42
:1059D000BB46B246A946A046F0BD4246D31A9BB28A
:1059E000AB42A1D30025D2E7002DD0D07F1B574377
:1059F00098465A19002392B2B94493462F00019356
:105A0000A4E753465D43ADB22A004946FDF7CAFB01
:105A1000019B2900E21853465A43306892B2494428
:105A2000FDF7C0FBA6E75A1992B29346D21B92B279
:105A3000904693420CD94346591A8BB29846FB18AC
:105A40009BB29B4682E76900CA1A424492B2B0E711
:105A5000914200DD7AE7EEE710B50400C068002847
:105A600003D0012149420EF053FA2069002803D0E7
:105A7000012149420EF04CFA0023E0686381238142
:105A8000002801D00EF034FA2069002801D00EF071
:105A90002FFA012010BDC04670B50400C0680D008B
:105AA000002803D0012149420EF032FA2069002873
:105AB00003D0012149420EF02BFA7F21E379ED0159
:105AC0001940E0682943E171002801D00EF010FA76
:105AD0002069002801D00EF00BFA012070BDC046ED
